:020000040000FA
:060000000A128A11F92F1B
:100E940083120313860183160317880189018316BD
:100EA400031386010614861406158901831203139D
:100EB40089018316031387018801831203138701B1
:100EC4008801F201F10108007208031D6A2F6B2FDB
:100ED4008C2F83120313890109148230F400DD304E
:100EE400F300F30B732FF40B732F782F8312031378
:100EF400091089148230F400DD30F300F30B802FE5
:100F0400F40B802F852F8312031389100915F20126
:100F1400F20A8F2F83120313861608000A128A110D
:100F24004A270A128A1183120313061C9A2F9B2F35
:100F3400A42F06138613880187010A128A116627D3
:100F44000A128A117203031DA82FA92F952F831249
:100F54000313861CAE2FAF2FB12FF101F10A061D2A
:100F6400B42FB52FB72FF001F00A7103031DBB2F67
:100F7400BC2FD62F8618BF2FC02FD62FF101871B69
:100F8400C42FC52FD22F0708F5007507870007085F
:100F9400031DCD2FCE2FD62F0708013E8700D62F55
:100FA40087010617F201D62F7003031DDA2FDB2FFA
:100FB400952F0619DE2FDF2F952FF001881BE32FC5
:100FC400E42FF12F0808F500750788000808031DB1
:100FD400EC2FED2FF52F0808013E8800952F88018E
:100FE4008617F201952F952F0A128A110028F00115
:0C0FF400F101F20183010A128A11902F12
:04400E00D720FF3F79
:00000001FF
