:020000040000FA
:060000000A128A110C280F
:10000800FE00030EF1000A08F2000A128A11812884
:100018000A128A110F28F801F901FA018312031351
:10002800B60183010A128A118F2900308312031343
:10003800AB000030AA000030A9000030A800230857
:1000480022042104200403192A282B287828AC012B
:10005800AC0A3B280130F3000310A00DA10DA20D3E
:10006800A30DF30B30280130F3007308AC07A31F6E
:100078003E283F282E280130F3000310A80DA90DB3
:10008800AA0DAB0DF30B412823082702031D5628A0
:1000980022082602031D562821082502031D56287A
:1000A80020082402031C59285A2869282008A40279
:1000B8002108031C210FA5022208031C220FA602F7
:1000C8002308031C230FA702281401300310A30CD4
:1000D800A20CA10CA00CFF3E031D6A280130AC0243
:1000E800031D772878283F282B08A3002A08A20098
:1000F8002908A1002808A00008000B1D84288528CD
:100108008C280130F000700883120313B6070B1116
:10011800831203130C1E91289228BB287808031D0C
:10012800962897289A2835089900B8287803031D37
:100138009E289F28A6287A0899000130F0007008A8
:10014800F807B82802307806031DAB28AC28AF287A
:1001580079089900A12803307806031DB428B5282A
:10016800B8280A309900B828831603130C12831292
:100178008C1EBF28C028C2281A08890072088A0065
:10018800710E8300FE0E7E0E090083120313A60073
:100198000A128A1191220A128A11A630F30000303D
:1001A800F4000A128A117E220A128A11831203139A
:1001B8002608A400A5012408F3002508F4000A1263
:1001C8008A117E220A128A110A128A1191220A12AF
:1001D8008A11A730F3000030F4000A128A117E2237
:1001E8000A128A110030F300F4000A128A11F7216A
:1001F8000A128A11740883120313A8007308A7004F
:100208000A128A1188220A128A11831203132808F3
:10021800A3002708A2000800831603178801890194
:1002280083160313850183120313850183160313B1
:100238008601831203138601831603138801831230
:100248000313880183160313890183120313890199
:10025800F830B1003108B5000A128A1154220A1286
:100268008A118316031381128111073081040A3021
:100278008312031381008B178B160B110030B0000B
:100288000130AF008630AE00A030AD000A128A11EE
:1002980055210A128A110A128A1127220A128A1172
:1002A8000800283083120313940083160313910166
:1002B800831203132D08F4002E08F5002F08F6000A
:1002C8003008F70002300310F40DF50DF60DF70DA8
:1002D800FF3E031D67297708A3007608A20075086A
:1002E800A1007408A0000030A7003D30A600093026
:1002F800A5000030A4000A128A1119200A128A11D6
:10030800831203132008FF3E8316031393009401FE
:100318008715071608000A128A1110210A128A1175
:100328001030831203133602031C9B299C299F2932
:10033800831603130C1632300A128A11C9200A12C6
:100348008A11831203132208B2003208B500350857
:100358000319AF29B029B2290514B32905100230B1
:1003680083120313B4000430B300B930B200B20BE7
:10037800BB29B30BBB29B40BBB29C22994290A1288
:100388008A110C2883120313A0000A128A119122E1
:100398000A128A11A630F3000030F4000A128A11FA
:1003A8007E220A128A11831203132008F600F7012D
:1003B8007608F3007708F4000A128A117E220A12DE
:1003C8008A117508F600F7017608F3007708F4003B
:1003D8000A128A117E220A128A110A128A118822A6
:1003E8000A128A1108000A128A1171220A128A1145
:1003F8008316031391150A128A1171220A128A119F
:10040800831203131308F500F6017508A000760897
:10041800A1000A128A1171220A128A117303740444
:10042800031D172A182A1C2A8316031391121F2A40
:100438008316031391161116831203132108F4006F
:100448002008F30008000B3083120313A1002108D1
:10045800F50031300A128A11C6210A128A110330B6
:1004680083120313A2009730A100A10B392AA20B13
:10047800392A083083120313A1002108F5002D3012
:100488000A128A11C6210A128A1103308312031331
:10049800A2009730A100A10B4F2AA20B4F2A0800F7
:1004A8008316031307138717193099001815831635
:1004B80003178711831603139A0118128312031363
:1004C800981783160313181398168C1683120313A0
:1004D800181318168B170B17080083160313141913
:1004E800762A772A712A11081F39031D7C2A7D2A4A
:1004F800712A08000A128A1171220A128A117308D5
:1005080083120313930008000A128A1171220A1237
:100518008A1183160313111508000A128A11712211
:0C0528000A128A11831603131114080034
:04400E00D420FF3F7C
:00000001FF
