:020000040000FA
:060000000A128A110C280F
:10000800FE00030EF1000A08F2000A128A11BB2949
:100018000A128A110F28FA0183120313B401B501D9
:10002800B601B701B801B901BA01BB01BC01BD01F4
:1000380083010A128A1120280A128A1115220A122B
:100048008A111030831203133502031C2C282D2823
:100058003028831603130C1632300A128A115F22D5
:100068000A128A11831203132008B0003008BA005C
:1000780033300A128A115F220A128A11831203137B
:100088002008B0003008BB0034300A128A115F2201
:100098000A128A11831203132008B0003008B8002E
:1000A80035300A128A115F220A128A118312031349
:1000B8002008B0003008B90036300A128A115F22D1
:1000C8000A128A11831203132008B0003008B60000
:1000D80037300A128A115F220A128A118312031317
:1000E8002008B0003008B7003B08B0000530031006
:1000F800B00DFF3E031D7B280430F3000030F400F0
:100108003A08B100B2013108F5003208F6000A12C7
:100118008A11EA200A128A1173088312031330071E
:10012800B3003308BF003908B00005300310B00D24
:10013800FF3E031D9A280430F3000030F40038080D
:10014800B100B2013108F5003208F6000A128A112E
:10015800EA200A128A117308831203133007B300C6
:100168003308BD003708B00005300310B00DFF3E5E
:10017800031DB9280430F3000030F4003608B1003C
:10018800B2013108F5003208F6000A128A11EA2095
:100198000A128A117308831203133007B300330855
:1001A800BC003F088600023083120313B2000430FB
:1001B800B100B930B000B00BDF28B10BDF28B20BAB
:1001C800DF28E62825280A128A110C28831203132F
:1001D800A101F41FF028F128F828F309F409F30A1B
:1001E8000319F40AA101A10AF61FFB28FC28052916
:1001F800F509F609F50A0319F60A0130F700770838
:10020800A106A201A3017308740403190C290D297E
:100218004429A001A00A1B2901300310F30DF40D95
:10022800FF3E031D11290130F7007708A007F41FCE
:100238001E291F29102901300310A20DA30DFF3E0E
:10024800031D202974087602031D2C2973087502E2
:10025800031C2F29302937297308F5027408031C59
:10026800F603F602221401300310F40CF30CFF3EDF
:10027800031D38290130A002031D432944291F29E1
:1002880021080319482949294E29A209A309A20AC4
:100298000319A30A2308F4002208F3000800003019
:1002A800F7000030F6000030F5000030F40083124B
:1002B800031323082204210420040319642965294F
:1002C800B229F801F80A75290130F3000310A00DCE
:1002D800A10DA20DA30DF30B6A290130F3007308D9
:1002E800F807A31F7829792968290130F30003103A
:1002F800F40DF50DF60DF70DF30B7B2923082702F6
:10030800031D902922082602031D90292108250291
:10031800031D902920082402031C93299429A3294A
:100328002008A4022108031C210FA5022208031C8F
:10033800220FA6022308031C230FA70274140130FE
:100348000310A30CA20CA10CA00CFF3E031DA429B2
:100358000130F802031DB129B22979297708A300D1
:100368007608A2007508A1007408A00008000B1DFB
:10037800BE29BF29CA290130F0007008831203136F
:10038800B5070130F0007008BE070B118312031384
:100398000C1ECF29D029FF293403031DD429D529C0
:1003A800FC29B4017A08031DDA29DB29DE293F0874
:1003B8009900FC297A03031DE229E329EA293D086B
:1003C80099000130F0007008FA07FC2902307A061B
:1003D800031DEF29F029F3293C089900E52903308A
:1003E8007A06031DF829F929FC290A309900FC2905
:1003F800831603130C1283128C1E032A042A0E2A56
:100408001A0889001F301A02031C0B2A0C2A0E2A0C
:10041800B401B40A72088A00710E8300FE0E7E0EC3
:1004280009008316031788018901831603138501C0
:1004380083120313850183160313860183120313A2
:100448008601831603138801831203138801831618
:10045800031389018312031389017E30F900790897
:10046800BE00B401F830F9007908BF000A128A11F9
:1004780068230A128A118316031381128111073027
:1004880081040A308312031381008B178B160B111A
:100498000030AB000130AA008630A900A030A800C7
:1004A8000A128A11A6220A128A110A128A110E2326
:1004B8000A128A11080083120313A4000A128A116F
:1004C800A5230A128A11A630F3000030F4000A129C
:1004D8008A1192230A128A11831203132408A20094
:1004E800A3012208F3002308F4000A128A119223B8
:1004F8000A128A110A128A11A5230A128A11A73030
:10050800F3000030F4000A128A1192230A128A11A9
:100518000030F300F4000A128A11E0220A128A114C
:10052800740883120313A6007308A5000A128A111F
:100538009C230A128A11831203132608A100250896
:10054800A0000800283083120313940083160313B5
:100558009101831203132808AC002908AD002A086A
:10056800AE002B08AF0002300310AC0DAD0DAE0D80
:10057800AF0DFF3E031DB82A2F08A3002E08A200C6
:100588002D08A1002C08A0000030A7003D30A600CF
:100598000930A5000030A4000A128A1153210A125A
:1005A8008A11831203132008FF3E83160313930056
:1005B80094018715071608000A128A1185230A1262
:1005C8008A118316031391150A128A1185230A12B8
:1005D8008A11831203131308F500F6017508F70052
:1005E8007608F8000A128A1185230A128A11730301
:1005F8007404031D002B012B052B83160313911282
:10060800082B83160313911611167808F40077083F
:10061800F30008000B3083120313A0002008F50034
:1006280031300A128A113B230A128A1103308312CD
:100638000313A1009730A000A00B202BA10B202BA7
:10064800083083120313A0002008F5002D300A1289
:100658008A113B230A128A11033083120313A10063
:100668009730A000A00B362BA10B362B0800F80002
:100678000A128A11A5230A128A11A630F300003043
:10068800F4000A128A1192230A128A117808F600D5
:10069800F7017608F3007708F4000A128A1192230A
:1006A8000A128A117508F600F7017608F300770830
:1006B800F4000A128A1192230A128A110A128A1164
:1006C8009C230A128A11080083160313071387173D
:1006D8001930990018158316031787118316031309
:1006E8009A01181283120313981783160313181309
:1006F80098168C1683120313181318168B170B17DA
:1007080008008316031314198A2B8B2B852B1108C9
:100718001F39031D902B912B852B08000A128A1173
:1007280085230A128A1173088312031393000800A1
:100738000A128A1185230A128A11831603131115C6
:1007480008000A128A1185230A128A1183160313D4
:040758001114080070
:04400E00D420FF3F7C
:00000001FF
