:020000040000FA
:060000000A128A110C280F
:10000800FE00030EF1000A08F2000A128A11BA294A
:100018000A128A110F28FA0183120313B401B501D9
:10002800B601B701B801B901BA01BB01BC0183012E
:100038000A128A111F280A128A1149220A128A11E1
:100048001030831203133402031C2B282C282F286A
:10005800831603130C1632300A128A1102220A126E
:100068008A11831203132008B0003008B900333016
:100078000A128A1102220A128A1183120313200813
:10008800B0003008BA0034300A128A1102220A126B
:100098008A11831203132008B0003008B7003530E6
:1000A8000A128A1102220A128A11831203132008E3
:1000B800B0003008B80036300A128A1102220A123B
:1000C8008A11831203132008B0003008B5003730B6
:1000D8000A128A1102220A128A11831203132008B3
:1000E800B0003008B6003A08B00005300310B00D73
:1000F800FF3E031D7A280430F3000030F40039086D
:10010800B100B2013108F5003208F6000A128A116E
:10011800E9200A128A117308831203133007B30007
:100128003308BD003808B00005300310B00DFF3E9D
:10013800031D99280430F3000030F4003708B1009B
:10014800B2013108F5003208F6000A128A11E920D6
:100158000A128A117308831203133007B300330895
:10016800BC003608B00005300310B00DFF3E031D7B
:10017800B8280430F3000030F4003508B100B201AB
:100188003108F5003208F6000A128A11E9200A122D
:100198008A117308831203133007B3003308BB00B6
:1001A8003D088600023083120313B2000430B10008
:1001B800B930B000B00BDE28B10BDE28B20BDE2858
:1001C800E52824280A128A110C2883120313A10196
:1001D800F41FEF28F028F728F309F409F30A0319A4
:1001E800F40AA101A10AF61FFA28FB280429F50937
:1001F800F609F50A0319F60A0130F7007708A1068F
:10020800A201A3017308740403190B290C294329BB
:10021800A001A00A1A2901300310F30DF40DFF3EC6
:10022800031D10290130F7007708A007F41F1D29C6
:100238001E290F2901300310A20DA30DFF3E031D37
:100248001F2974087602031D2B2973087502031CE5
:100258002E292F2936297308F5027408031CF60382
:10026800F602221401300310F40CF30CFF3E031DB8
:1002780037290130A002031D422943291E292108DC
:100288000319472948294D29A209A309A20A0319D4
:10029800A30A2308F4002208F30008000030F7003E
:1002A8000030F6000030F5000030F400831203132C
:1002B8002308220421042004031963296429B1298D
:1002C800F801F80A74290130F3000310A00DA10DFC
:1002D800A20DA30DF30B69290130F3007308F80789
:1002E800A31F7729782967290130F3000310F40D3B
:1002F800F50DF60DF70DF30B7A2923082702031DD8
:100308008F2922082602031D8F2921082502031D93
:100318008F2920082402031C92299329A229200846
:10032800A4022108031C210FA5022208031C220F86
:10033800A6022308031C230FA7027414013003101C
:10034800A30CA20CA10CA00CFF3E031DA329013095
:10035800F802031DB029B12978297708A300760887
:10036800A2007508A1007408A00008000B1DBD2993
:10037800BE29C5290130F000700883120313B407A1
:100388000B11831203130C1ECA29CB29F4297A08EE
:10039800031DCF29D029D3292D309900F1297A03BB
:1003A800031DD729D829DF293C0899000130F0001E
:1003B8007008FA07F12902307A06031DE429E529B5
:1003C800E8293B089900DA2903307A06031DED294C
:1003D800EE29F1290A309900F129831603130C122A
:1003E80083128C1EF829F929FB291A08890072083A
:1003F8008A00710E8300FE0E7E0E0900831203131D
:10040800A4000A128A118D230A128A11A630F30059
:100418000030F4000A128A117A230A128A11831210
:1004280003132408A200A3012208F3002308F40000
:100438000A128A117A230A128A110A128A118D2342
:100448000A128A11A730F3000030F4000A128A1148
:100458007A230A128A110030F300F4000A128A1172
:10046800C8220A128A11740883120313A60073089B
:10047800A5000A128A1184230A128A11831203130F
:100488002608A1002508A000080083160317880184
:1004980089018316031385018312031385018316CB
:1004A800031386018312031386018316031388013D
:1004B800831203138801831603138901831203131C
:1004C8008901F830F9007908BD000A128A11502311
:1004D8000A128A11831603138112811107308104CD
:1004E8000A308312031381008B178B160B1100300F
:1004F800AB000130AA008630A900A030A8000A127B
:100508008A118E220A128A110A128A11F6220A12F6
:100518008A110800283083120313940083160313EA
:100528009101831203132808AC002908AD002A089A
:10053800AE002B08AF0002300310AC0DAD0DAE0DB0
:10054800AF0DFF3E031DA02A2F08A3002E08A2000E
:100558002D08A1002C08A0000030A7003D30A600FF
:100568000930A5000030A4000A128A1152210A128B
:100578008A11831203132008FF3E83160313930086
:1005880094018715071608000A128A116D230A12AA
:100598008A118316031391150A128A116D230A1200
:1005A8008A11831203131308F500F6017508F70082
:1005B8007608F8000A128A116D230A128A11730349
:1005C8007404031DE82AE92AED2A831603139112FD
:1005D800F02A83160313911611167808F400770889
:1005E800F30008000B3083120313A0002008F50065
:1005F80031300A128A1123230A128A110330831216
:100608000313A1009730A000A00B082BA10B082B07
:10061800083083120313A0002008F5002D300A12B9
:100628008A1123230A128A11033083120313A100AB
:100638009730A000A00B1E2BA10B1E2B0800F80062
:100648000A128A118D230A128A11A630F30000308B
:10065800F4000A128A117A230A128A117808F6001D
:10066800F7017608F3007708F4000A128A117A2352
:100678000A128A117508F600F7017608F300770860
:10068800F4000A128A117A230A128A110A128A11AC
:1006980084230A128A110800831603130713871785
:1006A8001930990018158316031787118316031339
:1006B8009A01181283120313981783160313181339
:1006C80098168C1683120313181318168B170B170A
:1006D8000800831603131419722B732B6D2B110842
:1006E8001F39031D782B792B6D2B08000A128A11EC
:1006F8006D230A128A1173088312031393000800EA
:100708000A128A116D230A128A118316031311150E
:1007180008000A128A116D230A128A11831603131C
:0407280011140800A0
:04400E00D420FF3F7C
:00000001FF
