:020000040000FA
:060000000A128A110C280F
:10000800FE00030EF1000A08F2000A128A11822883
:100018000A128A110F28F801F901FA018312031351
:10002800B401B50183010A128A11B1290030831283
:100038000313AB000030AA000030A9000030A8006C
:10004800230822042104200403192B282C287928AA
:10005800AC01AC0A3C280130F3000310A00DA10D3F
:10006800A20DA30DF30B31280130F3007308AC0780
:10007800A31F3F2840282F280130F3000310A80DA4
:10008800A90DAA0DAB0DF30B422823082702031D67
:10009800572822082602031D572821082502031D78
:1000A800572820082402031C5A285B286A2820089D
:1000B800A4022108031C210FA5022208031C220FF9
:1000C800A6022308031C230FA702281401300310DB
:1000D800A30CA20CA10CA00CFF3E031D6B28013041
:1000E800AC02031D7828792840282B08A3002A0889
:1000F800A2002908A1002808A00008000B1D8528D7
:1001080086288D280130F000700883120313B40785
:100118000B11831203130C1E92289328BC2878080D
:10012800031D972898289F28350899000130F0006A
:100138007008F807B9287803031DA328A428A7285E
:100148007A0899009A2802307806031DAC28AD2851
:10015800B028790899009A2803307806031DB52835
:10016800B628B9280A309900B928831603130C1247
:1001780083128C1EC028C128C3281A088900720857
:100188008A00710E8300FE0E7E0E0900831203138F
:10019800A6000A128A111D220A128A11A630F3003B
:1001A8000030F4000A128A110A220A128A118312F4
:1001B80003132608A400A5012408F3002508F40069
:1001C8000A128A110A220A128A110A128A111D2297
:1001D8000A128A11A730F3000030F4000A128A11BB
:1001E8000A220A128A110030F300F4000A128A1156
:1001F80081210A128A11740883120313A800730854
:10020800A7000A128A1114220A128A1183120313F0
:100218002808A3002708A200080028308312031327
:100228009400831603139101831203132D08F4001D
:100238002E08F5002F08F6003008F70002300310EA
:10024800F40DF50DF60DF70DFF3E031D2329770874
:10025800A3007608A2007508A1007408A000003069
:10026800A7007A30A6001230A5000030A4000A12B8
:100278008A111A200A128A11831203132008FF3EDA
:100288008316031393009401871507160800831635
:100298000317880189018316031385018312031349
:1002A80085018316031388018312031388018316BB
:1002B800031389018312031389010A128A11E021A9
:1002C8000A128A11831603138112811107308104DF
:1002D8000A308312031381008B178B160B11003021
:1002E800B0000130AF008630AE00A030AD000A1279
:1002F8008A1111210A128A1108000A128A11FD2195
:100308000A128A118316031391150A128A11FD2104
:100318000A128A11831203131308F500F6017508EF
:10032800A0007608A1000A128A11FD210A128A117A
:1003380073037404031DA129A229A6298316031394
:100348009112A92983160313911611168312031308
:100358002108F4002008F30008000A128A114B2132
:100368000A128A111030831203133402031CBD29A8
:10037800BE29C129831603130C1632300A128A11BA
:10038800CA200A128A11831203132208B100310805
:10039800B500033083120313B3000830B20076307F
:1003A800B100B10BD529B20BD529B30BD529000063
:1003B800B6290A128A110C28831603130713871704
:1003C800193099001815831603178711831603131C
:1003D8009A0118128312031398178316031318131C
:1003E80098168C1683120313181318168B170B17ED
:1003F8000800831603131419022A032AFD29110879
:100408001F39031D082A092AFD2908000A128A1122
:10041800FD210A128A11730883120313930008003E
:100428000A128A11FD210A128A1183160313111563
:1004380008000A128A11FD210A128A118316031371
:040448001114080083
:04400E00D620FF3F7A
:00000001FF
