:020000040000FA
:060000000A128A110C280F
:10000800FE00030EF1000A08F2000A128A112C2BD6
:100018000A128A110F28F801F901FA018313363000
:1000280084004B300A128A112D270A128A11830183
:100038000A128A111F280A128A1124240A128A1104
:100048001030831203134402031C2B282C28302859
:10005800C401831603130C1633308312A200003038
:10006800A3004A08AA00AB012A08A4002B08A5008F
:100078000A128A11D7240A128A118312031322083A
:10008800AC002C08C2003330A2000030A3004A089C
:10009800AA00AB012A08F3002B08F4006430F5002D
:1000A8000030F6000A128A113E260A128A117408D4
:1000B80083120313A5007308A4000A128A11D72417
:1000C8000A128A11831203132208AC002308AD0018
:1000D8004208AE00AF012E08F3002F08F4009C3050
:1000E800F500FF30F6000A128A113E260A128A111C
:1000F8007308831203132C07B40074080318740AD6
:100108002D07B5000A30A2000030A3003508A5006D
:100118003408A4000A128A11D7240A128A118312F9
:1001280003132208AA002A08C1003330A2000030B5
:10013800A3004A08AA00AB012A08F3002B08F40020
:100148006430F5000030F6000A128A113E260A12C1
:100158008A11740883120313A5007308A4000A12F5
:100168008A11D7240A128A11831203132208AC00B9
:100178002308AD009C30AE002E08F30042080A1296
:100188008A11EF260A128A1183120313AF00F63080
:10019800B0003008F30041080A128A11EF260A124B
:1001A8008A11831203132F072C07B1003108C000EE
:1001B8003330A2000030A3004908AA00AB012A0886
:1001C800A4002B08A5000A128A11D7240A128A1142
:1001D800831203132208AC002C08BF003330A2009E
:1001E8000030A3004908AA00AB012A08F3002B0835
:1001F800F4006430F5000030F6000A128A113E2639
:100208000A128A11740883120313A5007308A40044
:100218000A128A11D7240A128A1183120313220898
:10022800AC002308AD003F08AE00AF012E08F30074
:100238002F08F4009C30F500FF30F6000A128A11EE
:100248003E260A128A117308831203132C07B4007E
:1002580074080318740A2D07B5000A30A20000308C
:10026800A3003508A5003408A4000A128A11D7246F
:100278000A128A11831203132208AA002A08BE0050
:100288003330A2000030A3004908AA00AB012A08B5
:10029800F3002B08F4006430F5000030F6000A1271
:1002A8008A113E260A128A11740883120313A500C4
:1002B8007308A4000A128A11D7240A128A11831219
:1002C80003132208AC002308AD009C30AE002E08B2
:1002D800F3003F080A128A11EF260A128A118312C4
:1002E8000313AF00F630B0003008F3003E080A12DE
:1002F8008A11EF260A128A11831203132F072C077B
:10030800B1003108BD003330A2000030A300370827
:10031800A5003608A4000A128A11F8250A128A11C3
:10032800831203132208AA002A08BC003330A20053
:100338000030A3003708F4003608F3006430F500F5
:100348000030F6000A128A113E260A128A11740831
:1003580083120313A5007308A4000A128A11F82552
:100368000A128A11831203132208AA002308AB0079
:100378003C08AC00AD012C08F3002D08F4009C30BB
:10038800F500FF30F6000A128A113E260A128A1179
:100398007308831203132A07B20074080318740A37
:1003A8002B07B3000A30A2000030A3003308A500D1
:1003B8003208A4000A128A11F8250A128A11831237
:1003C80003132208AA002A08BB003330A200003019
:1003D800A3003708F4003608F3006430F500003055
:1003E800F6000A128A113E260A128A11740883122C
:1003F8000313A5007308A4000A128A11F8250A122B
:100408008A11831203132208AA002308AB009C3028
:10041800AC002C08F3003C080A128A11EF260A12D5
:100428008A1183120313AD00F630AE002E08F300D4
:100438003B080A128A11EF260A128A118312031343
:100448002D072A07AF002F08BA000A304102031C03
:100458002E2A2F2A332A0930AA002A08C1000A3076
:100468004002031C382A392A3D2A0930AA002A08E2
:10047800C0000A303E02031C422A432A472A093098
:10048800AA002A08BE000A303D02031C4C2A4D2A45
:10049800512A0930AA002A08BD0006304202031C6E
:1004A800562A572A5B2A0530AA002A08C2000630B5
:1004B8003F02031C602A612A652A0530AA002A081F
:1004C800C20006303C02031C6A2A6B2A6F2A0530D8
:1004D800AA002A08C200F701F70A02300A128A1194
:1004E80092260A128A11831203134208303E0A1216
:1004F8008A1104270A128A11033083120313AA00EF
:100508002A08F70002300A128A1192260A128A1162
:10051800831203134108303E0A128A1104270A1273
:100528008A11043083120313AA002A08F700023044
:100538000A128A1192260A128A118312031340089A
:10054800303E0A128A1104270A128A1107308312D0
:100558000313AA002A08F70002300A128A11922609
:100568000A128A11831203133F08303E0A128A11B5
:1005780004270A128A11093083120313AA002A08D1
:10058800F70002300A128A1192260A128A1183127F
:1005980003133E08303E0A128A1104270A128A11F0
:1005A8000A3083120313AA002A08F70002300A123D
:1005B8008A1192260A128A11831203133D08303ECB
:1005C8000A128A1104270A128A110D3083120313A2
:1005D800AA002A08F70002300A128A1192260A1283
:1005E8008A11831203133C08303E0A128A11042729
:1005F8000A128A110F3083120313AA002A08F7007F
:1006080002300A128A1192260A128A1183120313DF
:100618003B08303E0A128A1104270A128A11103048
:1006280083120313AA002A08F70002300A128A115B
:1006380092260A128A11831203133A08303E0A12CC
:100648008A1104270A128A1124280A128A110C28EE
:100658000B1D2F2B302B372B0130F0007008831225
:100668000313C4070B11831203130C1F3C2B3D2BE0
:10067800522B7A03031D412B422B492B1E08F000F5
:100688007008CA001F15FA01502B1E08F0007008E8
:10069800C9001F11FA01FA0A0C139F148C1E552B5E
:1006A800562B952B85170D301A06031D5C2B5D2BD9
:1006B800902B85132B307906031D632B642B762B27
:1006C8000130B6070318B70A0030B7070130370200
:1006D800003003193602031C722B732B952BB601BD
:1006E800B701952B2D307906031D7B2B7C2B952B81
:1006F8000130B6020030031CB703B70201303702DD
:10070800003003193602031C8A2B8B2B952BFF30E4
:10071800B6000030B700952B1A08F0007008F900F1
:10072800952B0C1E982B992B1D2C7808031D9D2B9F
:100738009E2BA42B4208303E9900F801F80A1A2C87
:100748007803031DA82BA92BB02B2E30990002305B
:10075800F0007008F8001A2C02307806031DB52B3B
:10076800B62BBE2B4108303E99000330F0007008CC
:10077800F8001A2C03307806031DC32BC42BCC2B8E
:100788004008303E99000430F0007008F8001A2C38
:1007980004307806031DD12BD22BD92B2D3099008C
:1007A8000530F0007008F8001A2C05307806031D93
:1007B800DE2BDF2BE72B3F08303E99000630F00098
:1007C8007008F8001A2C06307806031DEC2BED2B68
:1007D800F42B2E3099000730F0007008F8001A2C1E
:1007E80007307806031DF92BFA2B022C3E08303E01
:1007F80099000830F0007008F8001A2C08307806C4
:10080800031D072C082C102C3D08303E9900093098
:10081800F0007008F8001A2C09307806031D152C12
:10082800162C1A2C0D309900F8011A2C8316031374
:100838000C1272088A00710E8300FE0E7E0E0900EB
:100848008316031385018801831203138801831615
:100858000313890186018330831203139F008316D3
:1008680003139F0183120313850183309F008316AE
:1008780003139F018312031385018601831603174F
:1008880088010A128A1140250A128A118312031359
:10089800C801831603130C1700300A128A119E250B
:1008A8000A128A1101300A128A119E250A128A1127
:1008B8008316031381128111073081040A308312D1
:1008C800031381008B178B160B110A128A11B82695
:1008D8000A128A11033083120313A3002308F700B6
:1008E80001300A128A1192260A128A1106300A1257
:1008F8008A1169260A128A11F701F70A02300A12C8
:100908008A1192260A128A1101300A128A1169265E
:100918000A128A11083083120313A3002308F70070
:1009280001300A128A1192260A128A1109300A1213
:100938008A1169260A128A11073083120313A30049
:100948002308F70002300A128A1192260A128A1125
:1009580001300A128A1169260A128A110E3083128E
:100968000313A3002308F70001300A128A11922604
:100978000A128A110C300A128A1169260A128A117F
:100988000D3083120313A3002308F70002300A1264
:100998008A1192260A128A1101300A128A116926CE
:1009A8000A128A11080083120313A701A31FDD2C62
:1009B800DE2CE52CA209A309A20A0319A30AA701A0
:1009C800A70AA51FE82CE92CF22CA409A509A40A5A
:1009D8000319A50A0130F7007708A706A801A9019D
:1009E800220823040319F92CFA2C312DA601A60A92
:1009F800082D01300310A20DA30DFF3E031DFE2C90
:100A08000130F7007708A607A31F0B2D0C2DFD2C2E
:100A180001300310A80DA90DFF3E031D0D2D23085D
:100A28002502031D192D22082402031C1C2D1D2D2F
:100A3800242D2208A4022308031CA503A5022814B8
:100A480001300310A30CA20CFF3E031D252D01301D
:100A5800A602031D302D312D0C2D27080319352D25
:100A6800362D3B2DA809A909A80A0319A90A29089E
:100A7800A3002808A2000800143083120313A10061
:100A88007930A000A00B462DA10B462D00300A128C
:100A98008A1135270A128A111A3083120313A1000A
:100AA800F730A000A00B562DA10B562D5B2D303032
:100AB8000A128A11D5260A128A11073083120313E3
:100AC800A1007C30A000A00B672DA10B672D0000B2
:100AD80030300A128A11D5260A128A11343083124C
:100AE8000313A000A00B762D000030300A128A11E3
:100AF800D5260A128A1138300A128A11D5260A1206
:100B08008A1110300A128A11D5260A128A11013068
:100B18000A128A11D5260A128A1106300A128A1177
:100B2800D5260A128A110C300A128A11D5260A1201
:100B38008A110800F5008330831203139F0083167F
:100B480003139F010C17D52D0514831603170814DA
:100B5800F72D8514831603178814F72D05158316AA
:100B680003170815F72D8515831603178815F72D14
:100B78008516831603170816F72D0914831603170D
:100B88008816F72D8914831603170817F72D0915EA
:100B9800831603178817F72D0514831603170814EF
:100BA800F72D7508F300F4017408003A0319DD2DD8
:100BB800D02D7308003A0319A82D013A0319AD2D59
:100BC800033A0319B22D013A0319B72D073A03194D
:100BD800BC2D013A0319C12D033A0319C62D013A58
:100BE8000319CB2DD02D080083120313A601A701EA
:100BF800220823040319012E022E392EA801A80A5F
:100C0800102E01300310A20DA30DFF3E031D062E6A
:100C18000130F7007708A807A31F132E142E052EFE
:100C280001300310A60DA70DFF3E031D152E230846
:100C38002502031D212E22082402031C242E252E02
:100C48002C2E2208A4022308031CA503A50226149F
:100C580001300310A30CA20CFF3E031D2D2E013002
:100C6800A802031D382E392E142E2708A3002608A3
:100C7800A200080083120313A001A101731C452ED2
:100C8800462E4E2E750883120313A0070318A10AD7
:100C98007608A10701300310F50DF60DFF3E031D80
:100CA8004F2E01300310F40CF30CFF3E031D562E9B
:100CB80073087404031D612E622E422E83120313DF
:100CC8002108F4002008F300080083120313A2008F
:100CD800A001A101842E2008220784000A128A118B
:100CE80019270A128A110A128A1104270A128A116C
:100CF800013083120313A0070318A10A0030A107CB
:100D08002008220784000A128A1119270A128A1158
:100D1800003A031D902E912E6F2E080083120313A4
:100D2800A1002103031D992E9A2EA62E77087F3E37
:100D3800A0002008A20022080A128A11D5260A1249
:100D48008A11B72E02302106031DAB2EAC2EB72E0A
:100D58007708BF3EA0002008A20022080A128A11C4
:100D6800D5260A128A11080083160313071387175A
:100D78001930990018158316031787118316031362
:100D88009A01181283120313981783160313181362
:100D980098168C1683120313181318168B170B1733
:100DA8000800F60083120313091076080A128A1144
:100DB80035270A128A118312031389140D30F5009E
:100DC800FB30F400F40BE62EF50BE62EEB2E831227
:100DD800031389100800F600F501761CF42EF52E91
:100DE800F92E7308F4007408F5070310F30D0310C7
:100DF800F60C7608031D012F022FF12E7508080046
:100E0800F50083120313091475080A128A1135278D
:100E18000A128A118312031389140D30F400F40B9B
:100E2800132F831203138910080007308A0004085F
:100E3800840A8207003430342E343034303400349D
:100E4800533431340034533432340034533433346B
:100E5800003464008001840A04060319003404067F
:0E0E68002E2FF3007308831203138800080076
:04400E00D420FF3F7C
:00000001FF
