:020000040000FA
:060000000A128A110C280F
:10000800FE00030EF1000A08F2000A128A112C2BD6
:100018000A128A110F28F801F901FA018313363000
:1000280084004B300A128A1115270A128A1183019B
:100038000A128A111F280A128A110C240A128A111C
:100048001030831203134402031C2B282C28302859
:10005800C401831603130C1633308312A200003038
:10006800A3004A08AA00AB012A08A4002B08A5008F
:100078000A128A11BF240A128A1183120313220852
:10008800AC002C08C2003330A2000030A3004A089C
:10009800AA00AB012A08F3002B08F4006430F5002D
:1000A8000030F6000A128A1126260A128A117408EC
:1000B80083120313A5007308A4000A128A11BF242F
:1000C8000A128A11831203132208AC002308AD0018
:1000D8004208AE00AF012E08F3002F08F4009C3050
:1000E800F500FF30F6000A128A1126260A128A1134
:1000F8007308831203132C07B40074080318740AD6
:100108002D07B5000A30A2000030A3003508A5006D
:100118003408A4000A128A11BF240A128A11831211
:1001280003132208AA002A08C1003330A2000030B5
:10013800A3004A08AA00AB012A08F3002B08F40020
:100148006430F5000030F6000A128A1126260A12D9
:100158008A11740883120313A5007308A4000A12F5
:100168008A11BF240A128A11831203132208AC00D1
:100178002308AD009C30AE002E08F30042080A1296
:100188008A11D7260A128A1183120313AF00F63098
:10019800B0003008F30041080A128A11D7260A1263
:1001A8008A11831203132F072C07B1003108C000EE
:1001B8003330A2000030A3004908AA00AB012A0886
:1001C800A4002B08A5000A128A11BF240A128A115A
:1001D800831203132208AC002C08BF003330A2009E
:1001E8000030A3004908AA00AB012A08F3002B0835
:1001F800F4006430F5000030F6000A128A11262651
:100208000A128A11740883120313A5007308A40044
:100218000A128A11BF240A128A11831203132208B0
:10022800AC002308AD003F08AE00AF012E08F30074
:100238002F08F4009C30F500FF30F6000A128A11EE
:1002480026260A128A117308831203132C07B40096
:1002580074080318740A2D07B5000A30A20000308C
:10026800A3003508A5003408A4000A128A11BF2487
:100278000A128A11831203132208AA002A08BE0050
:100288003330A2000030A3004908AA00AB012A08B5
:10029800F3002B08F4006430F5000030F6000A1271
:1002A8008A1126260A128A11740883120313A500DC
:1002B8007308A4000A128A11BF240A128A11831231
:1002C80003132208AC002308AD009C30AE002E08B2
:1002D800F3003F080A128A11D7260A128A118312DC
:1002E8000313AF00F630B0003008F3003E080A12DE
:1002F8008A11D7260A128A11831203132F072C0793
:10030800B1003108BD003330A2000030A300370827
:10031800A5003608A4000A128A11E0250A128A11DB
:10032800831203132208AA002A08BC003330A20053
:100338000030A3003708F4003608F3006430F500F5
:100348000030F6000A128A1126260A128A11740849
:1003580083120313A5007308A4000A128A11E0256A
:100368000A128A11831203132208AA002308AB0079
:100378003C08AC00AD012C08F3002D08F4009C30BB
:10038800F500FF30F6000A128A1126260A128A1191
:100398007308831203132A07B20074080318740A37
:1003A8002B07B3000A30A2000030A3003308A500D1
:1003B8003208A4000A128A11E0250A128A1183124F
:1003C80003132208AA002A08BB003330A200003019
:1003D800A3003708F4003608F3006430F500003055
:1003E800F6000A128A1126260A128A117408831244
:1003F8000313A5007308A4000A128A11E0250A1243
:100408008A11831203132208AA002308AB009C3028
:10041800AC002C08F3003C080A128A11D7260A12ED
:100428008A1183120313AD00F630AE002E08F300D4
:100438003B080A128A11D7260A128A11831203135B
:100448002D072A07AF002F08BA000A304102031C03
:100458002E2A2F2A332A0930AA002A08C1000A3076
:100468004002031C382A392A3D2A0930AA002A08E2
:10047800C0000A303E02031C422A432A472A093098
:10048800AA002A08BE000A303D02031C4C2A4D2A45
:10049800512A0930AA002A08BD0006304202031C6E
:1004A800562A572A5B2A0530AA002A08C2000630B5
:1004B8003F02031C602A612A652A0530AA002A081F
:1004C800C20006303C02031C6A2A6B2A6F2A0530D8
:1004D800AA002A08C200F701F70A02300A128A1194
:1004E8007A260A128A11831203134208303E0A122E
:1004F8008A11EC260A128A11033083120313AA0008
:100508002A08F70002300A128A117A260A128A117A
:10051800831203134108303E0A128A11EC260A128C
:100528008A11043083120313AA002A08F700023044
:100538000A128A117A260A128A11831203134008B2
:10054800303E0A128A11EC260A128A1107308312E9
:100558000313AA002A08F70002300A128A117A2621
:100568000A128A11831203133F08303E0A128A11B5
:10057800EC260A128A11093083120313AA002A08EA
:10058800F70002300A128A117A260A128A11831297
:1005980003133E08303E0A128A11EC260A128A1109
:1005A8000A3083120313AA002A08F70002300A123D
:1005B8008A117A260A128A11831203133D08303EE3
:1005C8000A128A11EC260A128A110D3083120313BB
:1005D800AA002A08F70002300A128A117A260A129B
:1005E8008A11831203133C08303E0A128A11EC2642
:1005F8000A128A110F3083120313AA002A08F7007F
:1006080002300A128A117A260A128A1183120313F7
:100618003B08303E0A128A11EC260A128A11103061
:1006280083120313AA002A08F70002300A128A115B
:100638007A260A128A11831203133A08303E0A12E4
:100648008A11EC260A128A1124280A128A110C2807
:100658008B130B1D302B312B382B0130F000700819
:1006680083120313C4070B11831203130C1F3D2BB2
:100678003E2B532B7A03031D422B432B4A2B1E0878
:10068800F0007008CA001F15FA01512B1E08F0006F
:100698007008C9001F11FA01FA0A0C139F148C1E66
:1006A800562B572B962B85170D301A06031D5D2BDD
:1006B8005E2B912B85132B307906031D642B652B3C
:1006C800772B0130B6070318B70A0030B707013097
:1006D8003702003003193602031C732B742B962B38
:1006E800B601B701962B2D307906031D7C2B7D2B87
:1006F800962B0130B6020030031CB703B702013055
:100708003702003003193602031C8B2B8C2B962BD7
:10071800FF30B6000030B700962B1A08F0007008BA
:10072800F900962B0C1E992B9A2B042C7808031D84
:100738009E2B9F2BA52B4208303E9900F801F80A02
:10074800012C7803031DA92BAA2BB22B4108303E9C
:1007580099000230F0007008F800012C0230780689
:10076800031DB72BB82BC02B4008303E990003302F
:10077800F0007008F800012C03307806031DC52B23
:10078800C62BCD2B2D3099000430F0007008F800EE
:10079800012C04307806031DD22BD32BDB2B3F080A
:1007A800303E99000530F0007008F800012C053043
:1007B8007806031DE02BE12BE92B3E08303E99001B
:1007C8000630F0007008F800012C06307806031D8A
:1007D800EE2BEF2BF72B3D08303E99000730F00049
:1007E8007008F800012C07307806031DFC2BFD2B40
:1007F800012C0D309900F801012C831603130C12FB
:100808008B1772088A00710E8300FE0E7E0E090097
:100818008316031385018801831203138801831645
:100828000313890186018330831203139F00831603
:1008380003139F0183120313850183309F008316DE
:1008480003139F018312031385018601831603177F
:1008580088010A128A1128250A128A1183120313A1
:10086800C801831603130C1700300A128A11862553
:100878000A128A1101300A128A1186250A128A116F
:100888008316031381128111073081040A30831201
:10089800031381008B178B160B110A128A11A026DD
:1008A8000A128A11033083120313A3002308F700E6
:1008B80001300A128A117A260A128A1106300A129F
:1008C8008A1151260A128A11F701F70A02300A1210
:1008D8008A117A260A128A1101300A128A115126BF
:1008E8000A128A11083083120313A3002308F700A1
:1008F80001300A128A117A260A128A1109300A125C
:100908008A1151260A128A11073083120313A30091
:100918002308F70002300A128A117A260A128A116D
:1009280001300A128A1151260A128A110E308312D6
:100938000313A3002308F70001300A128A117A264C
:100948000A128A110C300A128A1151260A128A11C7
:100958000D3083120313A3002308F70002300A1294
:100968008A117A260A128A1101300A128A1151262E
:100978000A128A11080083120313A701A31FC52CAA
:10098800C62CCD2CA209A309A20A0319A30AA70100
:10099800A70AA51FD02CD12CDA2CA409A509A40AD2
:1009A8000319A50A0130F7007708A706A801A901CD
:1009B800220823040319E12CE22C192DA601A60A0A
:1009C800F02C01300310A20DA30DFF3E031DE62CF1
:1009D8000130F7007708A607A31FF32CF42CE52CA9
:1009E80001300310A80DA90DFF3E031DF52C2308A7
:1009F8002502031D012D22082402031C042D052DA8
:100A08000C2D2208A4022308031CA503A502281400
:100A180001300310A30CA20CFF3E031D0D2D013065
:100A2800A602031D182D192DF42C270803191D2DB6
:100A38001E2D232DA809A909A80A0319A90A2908FE
:100A4800A3002808A2000800143083120313A10091
:100A58007930A000A00B2E2DA10B2E2D00300A12EC
:100A68008A111D270A128A111A3083120313A10052
:100A7800F730A000A00B3E2DA10B3E2D432D3030AA
:100A88000A128A11BD260A128A110730831203132B
:100A9800A1007C30A000A00B4F2DA10B4F2D000012
:100AA80030300A128A11BD260A128A113430831294
:100AB8000313A000A00B5E2D000030300A128A112B
:100AC800BD260A128A1138300A128A11BD260A1266
:100AD8008A1110300A128A11BD260A128A110130B1
:100AE8000A128A11BD260A128A1106300A128A11C0
:100AF800BD260A128A110C300A128A11BD260A1262
:100B08008A110800F5008330831203139F008316AF
:100B180003139F010C17BD2D051483160317081422
:100B2800DF2D8514831603178814DF2D051583160A
:100B380003170815DF2D8515831603178815DF2D74
:100B48008516831603170816DF2D09148316031755
:100B58008816DF2D8914831603170817DF2D09154A
:100B6800831603178817DF2D051483160317081437
:100B7800DF2D7508F300F4017408003A0319C52D38
:100B8800B82D7308003A0319902D013A0319952DD1
:100B9800033A03199A2D013A03199F2D073A0319AD
:100BA800A42D013A0319A92D033A0319AE2D013AD0
:100BB8000319B32DB82D080083120313A601A7014A
:100BC800220823040319E92DEA2D212EA801A80AD9
:100BD800F82D01300310A20DA30DFF3E031DEE2DCD
:100BE8000130F7007708A807A31FFB2DFC2DED2D7A
:100BF80001300310A60DA70DFF3E031DFD2D230890
:100C08002502031D092E22082402031C0C2E0D2E7A
:100C1800142E2208A4022308031CA503A5022614E7
:100C280001300310A30CA20CFF3E031D152E01304A
:100C3800A802031D202E212EFC2D2708A30026081C
:100C4800A200080083120313A001A101731C2D2E1A
:100C58002E2E362E750883120313A0070318A10A37
:100C68007608A10701300310F50DF60DFF3E031DB0
:100C7800372E01300310F40CF30CFF3E031D3E2EFB
:100C880073087404031D492E4A2E2A2E8312031357
:100C98002108F4002008F300080083120313A200BF
:100CA800A001A1016C2E2008220784000A128A11D3
:100CB80001270A128A110A128A11EC260A128A11CD
:100CC800013083120313A0070318A10A0030A107FB
:100CD8002008220784000A128A1101270A128A11A1
:100CE800003A031D782E792E572E0800831203131D
:100CF800A1002103031D812E822E8E2E77087F3EB0
:100D0800A0002008A20022080A128A11BD260A1291
:100D18008A119F2E02302106031D932E942E9F2E9A
:100D28007708BF3EA0002008A20022080A128A11F4
:100D3800BD260A128A1108008316031307138717A2
:100D48001930990018158316031787118316031392
:100D58009A01181283120313981783160313181392
:100D680098168C1683120313181318168B170B1763
:100D78000800F60083120313091076080A128A1174
:100D88001D270A128A118312031389140D30F500E6
:100D9800FB30F400F40BCE2EF50BCE2ED32E83129F
:100DA800031389100800F600F501761CDC2EDD2EF1
:100DB800E12E7308F4007408F5070310F30D03100F
:100DC800F60C7608031DE92EEA2ED92E75080800C0
:100DD800F50083120313091475080A128A111D27D6
:100DE8000A128A118312031389140D30F400F40BCC
:100DF800FB2E831203138910080007308A000408A9
:100E0800840A8207003430342E34303430340034CD
:100E1800533431340034533432340034533433349B
:100E2800003464008001840A0406031900340406AF
:0E0E3800162FF30073088312031388000800BE
:04400E00D420FF3F7C
:00000001FF
