:020000040000FA
:060000000A128A110C280F
:10000800FE00030EF1000A08F2000A128A11AB2A58
:100018000A128A110F28F801F901FA018312031351
:10002800A601A70183010A128A111A280A128A1145
:100038005F220A128A110A128A1105230A128A11EA
:10004800F701F70A01300A128A1185220A128A1169
:1000580015300A128A1136220A128A11F701F70A94
:1000680002300A128A1185220A128A113E300A12B7
:100078008A1136220A128A11153083120313A50039
:100088004B30A400BD30A300A30B4828A40B48287C
:10009800A50B48284F280A128A1105230A128A112B
:1000A800F701F70A01300A128A1185220A128A1109
:1000B80025300A128A1136220A128A11F701F70A24
:1000C80002300A128A1185220A128A1132300A1263
:1000D8008A1136220A128A11153083120313A500D9
:1000E8004B30A400BD30A300A30B7828A40B7828BC
:1000F800A50B78287F280A128A1105230A128A116B
:10010800F701F70A01300A128A1185220A128A11A8
:1001180001300A128A1136220A128A11F801F901ED
:10012800043083120313A5000C30A4003330A3005D
:10013800A30B9C28A40B9C28A50B9C280A128A11A7
:10014800F8220A128A110130F8070318F90A003058
:10015800F907003079020F3003197802031CB5281B
:10016800B6289428F801F901043083120313A50076
:100178000C30A4003330A300A30BC028A40BC02864
:10018800A50BC0280A128A11EB220A128A11013023
:10019800F8070318F90A0030F907003079020F3020
:1001A80003197802031CD928DA28B8280A128A11F8
:1001B80005230A128A11F701F70A02300A128A1176
:1001C80085220A128A1165300A128A11FD210A1243
:1001D8008A1153300A128A11FD210A128A11153028
:1001E80083120313A5004B30A400BD30A300A30B5A
:1001F800FB28A40BFB28A50BFB2802291F280A12A1
:100208008A110C28F5008330831203139F0083168C
:1002180003139F010C173D290514831603170814AF
:100228005F2985148316031788145F29051583161B
:10023800031708155F2985158316031788155F2985
:1002480085168316031708165F29091483160317E2
:1002580088165F2989148316031708175F2909155B
:100268008316031788175F290514831603170814C4
:100278005F297508F300F4017408003A0319452949
:1002880038297308003A03191029013A0319152966
:10029800033A03191A29013A03191F29073A0319BE
:1002A8002429013A03192929033A03192E29013A65
:1002B800031933293829080000300A128A11122339
:1002C8000A128A11343083120313A100F130A000FE
:1002D800A00B6C29A10B6C2930300A128A11D1228B
:1002E8000A128A110D3083120313A100FB30A000FB
:1002F800A00B7C29A10B7C2930300A128A11D1224B
:100308000A128A111D3083120313A1009030A00035
:10031800A00B8C29A10B8C29000030300A128A11FD
:10032800D1220A128A1138300A128A11D1220A12ED
:100338008A1108300A128A11D1220A128A11013050
:100348000A128A11D1220A128A1106300A128A1157
:10035800D1220A128A11080001308A000408840A8E
:10036800820700347734773477342E3465346C342C
:1003780065346334743472346F3453346F346D3489
:1003880065342E3463346F346D3400344C34433464
:10039800443420344C3469346234723461347234F5
:1003A8007934203466346F3472340034443465341C
:1003B800763465346C346F34703465346434203486
:1003C80042347934003465346C34653463347434BD
:1003D80072346F3453346F346D34653400344D34B3
:1003E80050344C3441344234203458344334383453
:1003F8000034F70077080F39F4007408F50077081F
:10040800F039F4007408F60083120313091476080F
:10041800F40004300310F40CFF3E031D0E2A740888
:100428000A128A1112230A128A11831203138914D9
:100438001A30F400F40B1E2A0000831203138910EB
:1004480075080A128A1112230A128A1183120313D9
:1004580089141A30F400F40B2F2A000083120313B6
:100468008910080083120313A200A001A101512AD8
:100478002008220784000A128A11B0210A128A1160
:100488000A128A11FD210A128A11013083120313FC
:10049800A0070318A10A0030A1072008220784003A
:1004A8000A128A11B0210A128A11003A031D5D2A24
:1004B8005E2A3C2A08008B170B178330831203131C
:1004C8009F00831603139F0185018312031385017F
:1004D800831603130C1700300A128A1106210A1218
:1004E8008A1101300A128A1106210A128A1183160A
:1004F8000313880189010A128A1160210A128A11DC
:10050800080083120313A1002103031D8C2A8D2ADE
:10051800992A77087F3EA0002008A20022080A1224
:100528008A11D1220A128A11AA2A02302106031D31
:100538009E2A9F2AAA2A7708BF3EA0002008A20068
:1005480022080A128A11D1220A128A11080083127B
:1005580003130C1FB02AB12ACA2A7A03031DB52A2D
:10056800B62ABF2AFA011E08F0007008A7001F1556
:1005780005168511C82AFA01FA0A1E08F000700843
:10058800A6001F11051285150C139F1472088A0006
:10059800710E8300FE0E7E0E0900F600831203130F
:1005A800091076080A128A1112230A128A11831274
:1005B800031389140B30F5006230F400F40BE22ABF
:1005C800F50BE22A0000831203138910080001309A
:1005D8000A128A11D1220A128A110C300A128A11BF
:1005E800D1220A128A11080001300A128A11D12276
:1005F8000A128A1108300A128A11D1220A128A11A3
:10060800080000300A128A11D1220A128A11013018
:100618000A128A11D1220A128A110800F3007308FB
:0806280083120313880008008F
:04400E00D420FF3F7C
:00000001FF
