:020000040000FA
:060000000A128A110C280F
:10000800FE00030EF1000A08F2000A128A11952870
:100018000A128A110F28F80183010A128A11CC28C2
:10002800F5008330831203139F00831603139F0187
:100038000C174B2805148316031708146D2885140C
:100048008316031788146D280515831603170815DA
:100058006D2885158316031788156D288516831650
:10006800031708166D2809148316031788166D28B8
:1000780089148316031708176D28091583160317A3
:1000880088176D2805148316031708146D2875083A
:10009800F300F4017408003A03195328462873083A
:1000A800003A03191E28013A03192328033A0319B1
:1000B8002828013A03192D28073A03193228013A4A
:1000C80003193728033A03193C28013A0319412830
:1000D800462808008316031788018901831603132D
:1000E8008501860187018801F8018B170B17831298
:1000F80003138C11831603138C15851600300A120E
:100108008A1114200A128A11F3012030F7007708A7
:10011800F400F50124300A128A11B3200A128A1158
:100128000800831203138C1D9A289B28AC280A12F6
:100138008A11D5200A128A118312031388007808BD
:100148000A128A11E5200A128A11831203138C11EC
:1001580072088A00710E8300FE0E7E0E0900F600FA
:10016800831603138712760874048312031394000A
:10017800761DBF28C028C528750883160313940068
:10018800CA2873087504831603139400871508009A
:100198000A128A116E200A128A11D1280A128A11AB
:1001A8000C280A128A11DE200A128A1183120313FC
:1001B8001308080083160313141CE328E428DE2818
:0E01C8000800F0007008831203139300080073
:04400E00D420FF3F7C
:00000001FF
