:020000040000FA
:060000000A128A110C280F
:10000800FE00030EF2000A08F3000A128A1198286B
:100018000A128A110F28F80183010A128A11CE28C0
:10002800F6008330831203139F00831603139F0186
:100038000C174B2805148316031708146D2885140C
:100048008316031788146D280515831603170815DA
:100058006D2885158316031788156D288516831650
:10006800031708166D2809148316031788166D28B8
:1000780089148316031708176D28091583160317A3
:1000880088176D2805148316031708146D28760839
:10009800F400F5017508003A031953284628740836
:1000A800003A03191E28013A03192328033A0319B1
:1000B8002828013A03192D28073A03193228013A4A
:1000C80003193728033A03193C28013A0319412830
:1000D800462808008316031788018901831603132D
:1000E8008501831203138501F80100300A128A1171
:1000F80014200A128A1183160313860188018312B9
:100108000313860188018B170B178C1183160313B1
:100118008C158516F401F501F60124300A128A11AE
:10012800B8200A128A110800831203138C1D9D2817
:100138009E28A72878080A128A11D7200A128A113D
:10014800831203138C110C1FAA28AB28B1281E0890
:10015800F1007108F8000C139F1473088A00720EDE
:100168008300FE0E7E0E0900F70083160313871224
:10017800771DBF28C028C428760894008715C8288A
:1001880074087604940087117708750483120313A2
:10019800940008000A128A116E200A128A11D328C4
:1001A8000A128A110C28F0007008831203139300B6
:0201B80008003D
:04400E00D620FF3F7A
:00000001FF
