:020000040000FA
:060000000A128A110C280F
:10000800FE00030EF2000A08F3000A128A116E2895
:100018000A128A110F28F90183010A128A11D628B7
:10002800F6008330831203139F00831603139F0186
:100038000C174B2805148316031708146D2885140C
:100048008316031788146D280515831603170815DA
:100058006D2885158316031788156D288516831650
:10006800031708166D2809148316031788166D28B8
:1000780089148316031708176D28091583160317A3
:1000880088176D2805148316031708146D28760839
:10009800F400F5017508003A031953284628740836
:1000A800003A03191E28013A03192328033A0319B1
:1000B8002828013A03192D28073A03193228013A4A
:1000C80003193728033A03193C28013A0319412830
:1000D80046280800831203138C1D7328742885286A
:1000E8000A128A11DF200A128A1183120313880068
:1000F80079080A128A11EF200A128A11831203134F
:100108008C110C1F882889288F281E08F100710877
:10011800F9000C139F1473088A00720E8300FE0EF8
:100128007E0E0900831603178801890183160313BD
:100138008501860187018801F9018B170B17831246
:1001480003138C11831603138C15851600300A12BD
:100158008A1114200A128A11F4012030F800780854
:10016800F500F60124300A128A11BD200A128A11FC
:100178000800F700831603138712770875048312A3
:1001880003139400771DC928CA28CF287608831638
:1001980003139400D4287408760483160313940078
:1001A800871508000A128A1196200A128A11DB287C
:1001B8000A128A110C280A128A11E8200A128A11D6
:1001C800831203131308080083160313141CED2865
:1001D800EE28E8280800F000700883120313930043
:0201E80008000D
:04400E00D420FF3F7C
:00000001FF
