:020000040000FA
:060000000A128A110C280F
:10000800FE00030EF1000A08F2000A128A11722893
:100018000A128A110F28F601F701F80183010A1262
:100028008A11E728F5004E288F30831603138F05B1
:100038007028831603130F138F120F1670288F3032
:10004800831603138F057028831603130F088F393F
:1000580010388F007028831603130F088F39403823
:100068008F007028831603130F088F3950388F00BC
:100078007028831603130F088F3960388F00702893
:100088007030831603138F0470287030831603139F
:100098008F0470287508F300F4017408003A0319F6
:1000A800562849287308003A03191828013A0319F1
:1000B8001D28033A03192328013A03192828073A67
:1000C80003192F28013A03193628033A03193D2842
:1000D800013A0319442849280F1408000B1D7528F4
:1000E8007628852883120313891C7B287C287E2880
:1000F80089100915091C8128822884288914091166
:100108000B11831203130C1F8A288B2890281E08B2
:10011800F0007008F6000C130B1C93289428B928DB
:10012800861C972898289A28F801F80A7803031D4E
:100138009E289F28A6288618A228A328A62807084C
:10014800FF3E8700061DA928AA28AC28F701F70A50
:100158007703031DB028B128B8280619B428B52894
:10016800B8280708013E87000B1072088A00710E34
:100178008300FE0E7E0E090007300A128A1116202F
:100188000A128A118312031386010617861783162B
:10019800031387018312031387018316031788014A
:1001A8008901831603138601F801F70186140615E1
:1001B800961416158B150B108B1705148111F83032
:1001C80081058B1608000A128A11C0200A128A11AA
:1001D80083120313070876020318F328F428F62875
:0E01E8000914EC280910EC280A128A110C28C0
:04400E00D420FF3F7C
:00000001FF
