:020000040000FA
:060000000A128A110C280F
:10000800FE00030EF1000A08F2000A128A11722893
:100018000A128A110F28F601F701F80183010A1262
:100028008A11F528F5004E288F30831603138F05A3
:100038007028831603130F138F120F1670288F3032
:10004800831603138F057028831603130F088F393F
:1000580010388F007028831603130F088F39403823
:100068008F007028831603130F088F3950388F00BC
:100078007028831603130F088F3960388F00702893
:100088007030831603138F0470287030831603139F
:100098008F0470287508F300F4017408003A0319F6
:1000A800562849287308003A03191828013A0319F1
:1000B8001D28033A03192328013A03192828073A67
:1000C80003192F28013A03193628033A03193D2842
:1000D800013A0319442849280F1408000B1D7528F4
:1000E8007628822883120313891C7B287C287F2882
:1000F800891009158128891409110B11831203131A
:100108000C1F872888288D281E08F0007008F60024
:100118000C130B1C90289128B828861C9428952825
:100128009728F801F80A7803031D9B289C28A4281F
:1001380086189F28A028A4280708FF3E8700F801F2
:10014800061DA728A828AA28F701F70A7703031D80
:10015800AE28AF28B7280619B228B328B728070849
:10016800013E8700F7010B1072088A00710E8300A8
:10017800FE0E7E0E090007300A128A1116200A1296
:100188008A11831203138601061786178316031331
:1001980089018312031389018316031387018312CC
:1001A8000313870183160317880189018316031334
:1001B80086018B17F801F701861406159614161593
:1001C8008B150B108B170B170514D7308100811175
:1001D800F830810581128B168B160B170B118B17B4
:1001E80008000A128A11BF200A128A118312031307
:1001F8000708760203180129022904290914FA2894
:0A0208000910FA280A128A110C28C6
:04400E00D420FF3F7C
:00000001FF
