:020000040000FA
:060000000A128A1110280B
:10000800FE00030E83120313A3000408A4000A08C9
:10001800A5000A128A1121280A128A111328F90147
:10002800FA01FB01FC01FD0183120313A901AA01D6
:10003800AB0183010A128A11C82A0B1D242825281E
:100048003D28861B28282928322806138617790870
:100058000A128A11BF200A128A113C280617861331
:10006800AB01AB0A2A080A128A11BF200A128A11A8
:100078000B11831203130C1F422843288B281E08D8
:10008800A0002008FB007A03031D4B284C28712888
:10009800FA017B08A00003300310A00DFF3E031DEA
:1000A80050280310200DA1002108F9001030F0009D
:1000B8000030F1007908A000A1012008F200210811
:1000C800F3000A128A11BE210A128A1170088312DB
:1000D8000313A2002208F9008928FA01FA0A10304D
:1000E800F0000030F1007B08A000A1012008F20018
:1000F8002108F3000A128A11BE210A128A11700817
:1001080083120313A2002208AA000C139F140B1CCD
:100118008E288F28B628861C922893289528FD01BA
:10012800FD0A7D03031D99289A28A22886189D2870
:100138009E28A2280708FF3E8700FD01061DA52866
:10014800A628A828FC01FC0A7C03031DAC28AD28BE
:10015800B5280619B028B128B5280708013E870038
:10016800FC010B1025088A0024088400230E830054
:10017800FE0E7E0E0900F20015297E30831203134D
:1001880088004F2960308312031388004F29DA3022
:100198008312031388004F29F23083120313880057
:1001A8004F29E4308312031388004F29B630831295
:1001B800031388004F29BE308312031388004F2988
:1001C80062308312031388004F29FE308312031311
:1001D80088004F29F6308312031388004F29EE3028
:1001E8008312031388004F29BC308312031388003D
:1001F8004F291E308312031388004F29F8308312C9
:10020800031388004F299E308312031388004F2957
:100218008E308312031388004F2983120313880139
:100228004F297208F000F1017108003A03191D29DD
:1002380011297008003A0319C128013A0319C62880
:10024800033A0319CB28013A0319D028073A0319AE
:10025800D528013A0319DA28033A0319DF28013AA5
:100268000319E4280F3A0319E928013A0319EE287B
:10027800033A0319F328013A0319F828073A03192E
:10028800FD28013A03190229033A03190729013AFB
:1002980003190C291129080083120313A8008330BD
:1002A8009F00831603139F010C17992983160313C4
:1002B8000514831603170814BD2983160313851420
:1002C800831603178814BD2983160313051583168F
:1002D80003170815BD2983160313851583160317FD
:1002E8008815BD2983160313851683160317081668
:1002F800BD29831603130914831603178816BD290D
:10030800831603138914831603170817BD29831648
:1003180003130915831603178817BD2983160313BA
:100328000514831603170814BD298312031328081C
:10033800A600A7012708003A0319A329922926082D
:10034800003A03195A29013A03196129033A031992
:100358006829013A03196F29073A03197629013ADE
:1003680003197D29033A03198429013A03198B29B2
:1003780092290800F601F11FC229C329CA29F009E8
:10038800F109F00A0319F10AF601F60AF31FCD295B
:10039800CE29D729F209F309F20A0319F30A013021
:1003A800F4007408F606F701F801700871040319DF
:1003B800DE29DF29162AF501F50AED290130031097
:1003C800F00DF10DFF3E031DE3290130F400740820
:1003D800F507F11FF029F129E22901300310F70D83
:1003E800F80DFF3E031DF22971087302031DFE2953
:1003F80070087202031C012A022A092A7008F202F4
:100408007108031CF303F302771401300310F10C95
:10041800F00CFF3E031D0A2A0130F502031D152AC0
:10042800162AF129760803191A2A1B2A202AF709FD
:10043800F809F70A0319F80A7808F1007708F000B4
:10044800080083120313A8005F2A8F308316031352
:100458008F05812A831603130F138F120F16812A13
:100468008F30831603138F05812A831603130F0811
:100478008F3910388F00812A831603130F088F399C
:1004880040388F00812A831603130F088F3950389C
:100498008F00812A831603130F088F3960388F0065
:1004A800812A7030831603138F04812A70308316D3
:1004B80003138F04812A2808A600A7012708003AF9
:1004C8000319672A5A2A2608003A0319292A013AE1
:1004D80003192E2A033A0319342A013A0319392A2F
:1004E800073A0319402A013A0319472A033A03191C
:1004F8004E2A013A0319552A5A2A0F1408000730C0
:100508000A128A1125220A128A11831203138601FC
:100518008316031389018601880183120313890155
:1005280083160313870183120313870183160317A6
:1005380088018901831603138601FD01FC01F90175
:1005480083120313AA01FA01AB01A901831603134D
:1005580086140615961416158B150B108B170B178A
:1005680000300A128A1150210A128A1183160313C5
:1005780081128111073081048312031381010B1149
:100588008B178B160B1108000A128A1183220A1284
:100598008A117B088312031307020318D42AD52A69
:1005A800D72A0914CD2A0910CD2A0A128A1110282F
:04400E00D420FF3F7C
:00000001FF
