:020000040000FA
:060000000A128A11BE2F56
:10000C00CA34003400340034D734003400340034A3
:10001C00E334003400340034FF3400340034003452
:10002C001F340134003400342F34013400340034D4
:10003C0007300A128A1141200A128A1183160313FF
:10004C00870183120313870183160313880183121C
:10005C000313880183160317880189018316031380
:10006C00861706178616061686150615861485132A
:10007C00051381130800FA0079288F3083160313B7
:10008C008F059B28831603130F138F120F169B28B3
:10009C008F30831603138F059B28831603130F08C9
:1000AC008F3910388F009B28831603130F088F3954
:1000BC0040388F009B28831603130F088F39503854
:1000CC008F009B28831603130F088F3960388F001D
:1000DC009B287030831603138F049B287030831673
:1000EC0003138F049B287A08F800F9017908003A69
:1000FC000319812874287808003A03194328013A17
:10010C0003194828033A03194E28013A03195328B6
:10011C00073A03195A28013A03196128033A0319BB
:10012C006828013A03196F2874280F1408000A1262
:10013C008A111E200A128A11B52807169F30FB005F
:10014C00A728FB0BA628AA28AB2883120313071297
:10015C009F30FB00B128FB0BB028B428B5288312C4
:10016C000313861FBA28BB28BF28061BBE28BF282E
:10017C00A328861BC228C328C828061BC628C72844
:10018C00C8280712861BCB28CC28FF28061FCF288F
:10019C00D028FF28A001A1018312031307160330F6
:1001AC00FC007930FB00FB0BD928FC0BD928DE288E
:1001BC008312031307120330FC007930FB00FB0B96
:1001CC00E528FC0BE528EA28013083120313A0076D
:1001DC000318A10A0030A1072108803AFF008030E3
:1001EC007F02031DFB2864302002031CFE28FF281D
:1001FC00D22883120313861B042905291629061FEE
:10020C000829092916290430FD008E30FC00123013
:10021C00FB00FB0B0F29FC0B0F29FD0B0F2900001A
:10022C0083120313861B1B291C294F29061F1F2908
:10023C0020294F29A201A3018312031307160430AE
:10024C00FC004E30FB00FB0B2929FC0B292900007C
:10025C008312031307120430FC004E30FB00FB0B1F
:10026C003529FC0B35290000013083120313A2073A
:10027C000318A30A0030A3072308803AFF0080303C
:10028C007F02031D4B2964302202031C4E294F2987
:10029C00222983120313861B542955296629061F0C
:1002AC005829592966290430FD008E30FC00123083
:1002BC00FB00FB0B5F29FC0B5F29FD0B5F2900008A
:1002CC0083120313861B6B296C299F29061F6F2928
:1002DC0070299F29A401A50183120313071604306A
:1002EC00FC00EE30FB00FB0B7929FC0B792900009C
:1002FC008312031307120430FC00EE30FB00FB0BDF
:10030C008529FC0B85290000013083120313A407F7
:10031C000318A50A0030A5072508803AFF00803095
:10032C007F02031D9B2964302402031C9E299F29F4
:10033C00722983120313861BA429A529B629061F2B
:10034C00A829A929B6290430FD008E30FC001230F2
:10035C00FB00FB0BAF29FC0BAF29FD0BAF290000F9
:10036C0083120313861BBB29BC29EF29061FBF2947
:10037C00C029EF29A601A701831203130716033026
:10038C00FC00F130FB00FB0BC929FC0BC929CE2961
:10039C008312031307120330FC00F130FB00FB0B3C
:1003AC00D529FC0BD529DA29013083120313A607B2
:1003BC000318A70A0030A7072708803AFF008030EF
:1003CC007F02031DEB2964302602031CEE29EF2962
:1003DC00C22983120313861BF429F529052A061F4B
:1003EC00F829F929052A0330FD000830FC00773084
:1003FC00FB00FB0BFF29FC0BFF29FD0BFF298312D4
:10040C000313861B0A2A0B2A402A061F0E2A0F2AC0
:10041C00402AA801A9012908803AFF0080307F02F8
:10042C00031D1A2A64302802031C1D2A1E2A1F2AA7
:10043C00402A8312031307160330FC00A130FB0083
:10044C00FB0B262AFC0B262A2B2A831203130712DA
:10045C000330FC00A130FB00FB0B322AFC0B322AD0
:10046C00372A013083120313A8070318A90A003096
:10047C00A907112A83120313861B452A462A562ADA
:10048C00061F492A4A2A562A0330FD000830FC0070
:10049C007730FB00FB0B502AFC0B502AFD0B502A2B
:1004AC0083120313861B5B2A5C2A912A061F5F2A80
:1004BC00602A912AAA01AB012B08803AFF008030F8
:1004CC007F02031D6B2A32302A02031C6E2A6F2A0C
:1004DC00702A912A8312031307160330FC00C930CB
:1004EC00FB00FB0B772AFC0B772A7C2A8312031365
:1004FC0007120330FC00C930FB00FB0B832AFC0BFA
:10050C00832A882A013083120313AA070318AB0A23
:10051C000030AB07622A83120313861B962A972A94
:10052C00A72A061F9A2A9B2AA72A0330FD00083007
:10053C00FC007730FB00FB0BA12AFC0BA12AFD0B66
:10054C00A12A83120313861BAC2AAD2AE22A061FAA
:10055C00B02AB12AE22AAC01AD012D08803AFF0085
:10056C0080307F02031DBC2A64302C02031CBF2A7E
:10057C00C02AC12AE22A8312031307160330FC0097
:10058C00F130FB00FB0BC82AFC0BC82ACD2A8312C6
:10059C00031307120330FC00F130FB00FB0BD42AD1
:1005AC00FC0BD42AD92A013083120313AC0703188D
:1005BC00AD0A0030AD07B32A83120313861BE72A5A
:1005CC00E82AF82A061FEB2AEC2AF82A0330FD0049
:1005DC000830FC007730FB00FB0BF22AFC0BF22AF4
:1005EC00FD0BF22A83120313861BFD2AFE2A332BE2
:1005FC00061F012B022B332BAE01AF012F08803AC3
:10060C00FF0080307F02031D0D2B43302E02031C94
:10061C00102B112B122B332B8312031307160430C0
:10062C00FC004E30FB00FB0B192BFC0B192B0000B4
:10063C008312031307120430FC004E30FB00FB0B3B
:10064C00252BFC0B252B0000013083120313AE0766
:10065C000318AF0A0030AF07042B83120313861B59
:10066C00382B392B492B061F3C2B3D2B492B0330A8
:10067C00FD000830FC007730FB00FB0B432BFC0B20
:10068C00432BFD0B432B83120313861B4E2B4F2B3B
:10069C00822B061F522B532B822BB001B101310838
:1006AC00803AFF0080307F02031D5E2B4330300206
:1006BC00031C612B622B632B822B831203130716F3
:1006CC00D830FB00692B6A2BFB0B682B6D2B0000C1
:1006DC00831203130712D830FB00742B752BFB0B02
:1006EC00732B782B0000013083120313B00703180F
:1006FC00B10A0030B107552B83120313861B872BCD
:10070C00882B982B061F8B2B8C2B982B0330FD00E2
:10071C000830FC007730FB00FB0B922BFC0B922B70
:10072C00FD0B922B83120313861B9D2B9E2BCB2B25
:10073C00061FA12BA22BCB2BB201B3013308803A9D
:10074C00FF0080307F02031DAD2B43303202031CAF
:10075C00B02BB12BB22BCB2B831203130716FF300C
:10076C00FB00B82BFB0BB72B831203130712FF30C4
:10077C00FB00C02BFB0BBF2B013083120313B20702
:10078C000318B30A0030B307A42B83120313861B80
:10079C00D02BD12BE12B061FD42BD52BE12B0330E7
:1007AC00FD000830FC007730FB00FB0BDB2BFC0B57
:1007BC00DB2BFD0BDB2B83120313861BE62BE72BAA
:1007CC00142C061FEA2BEB2B142CB401B5013508A5
:1007DC00803AFF0080307F02031DF62B6430340218
:1007EC00031CF92BFA2BFB2B142C83120313071667
:1007FC00E330FB00012CFB0B002C831203130712BC
:10080C00E330FB00092CFB0B082C01308312031383
:10081C00B4070318B50A0030B507ED2B8312031388
:10082C00861B192C1A2C2A2C061F1D2C1E2C2A2C2C
:10083C000330FD000830FC007730FB00FB0B242C50
:10084C00FC0B242CFD0B242C83120313861B2F2C46
:10085C00302C632C061F332C342C632CB601B701BF
:10086C003708803AFF0080307F02031D3F2C323066
:10087C003602031C422C432C442C632C831203138E
:10088C000716CC30FB004A2C4B2CFB0B492C4E2C66
:10089C000000831203130712CC30FB00552C562C8E
:1008AC00FB0B542C592C0000013083120313B60798
:1008BC000318B70A0030B707362C83120313861BB4
:1008CC00682C692C792C061F6C2C6D2C792C033020
:1008DC00FD000830FC007730FB00FB0B732CFC0B8D
:1008EC00732CFD0B732C83120313861B7E2C7F2C15
:1008FC00AC2C061F822C832CAC2CB801B901390806
:10090C00803AFF0080307F02031D8E2C323038027B
:10091C00031C912C922C932CAC2C831203130716D2
:10092C00FF30FB00992CFB0B982C8312031307123E
:10093C00FF30FB00A12CFB0BA02C01308312031306
:10094C00B8070318B90A0030B907852C83120313B2
:10095C00861BB12CB22CC22C061FB52CB62CC22C6B
:10096C000330FD000830FC007730FB00FB0BBC2C87
:10097C00FC0BBC2CFD0BBC2C83120313861BC72C4D
:10098C00C82CFB2C061FCB2CCC2CFB2CBA01BB018E
:10099C003B08803AFF0080307F02031DD72C643067
:1009AC003A02031CDA2CDB2CDC2CFB2C83120313F9
:1009BC000716D830FB00E22CE32CFB0BE12CE62CC9
:1009CC000000831203130712D830FB00ED2CEE2C21
:1009DC00FB0BEC2CF12C0000013083120313BA0733
:1009EC000318BB0A0030BB07CE2C83120313861BE3
:1009FC00002D012D112D061F042D052D112D033059
:100A0C00FD000830FC007730FB00FB0B0B2DFC0BC2
:100A1C000B2DFD0B0B2D83120313861B162D172D7F
:100A2C004C2D061F1A2D1B2D4C2DBC01BD013D0854
:100A3C00803AFF0080307F02031D262D32303C02AD
:100A4C00031C292D2A2D2B2D4C2D83120313071635
:100A5C000330FC007A30FB00FB0B322DFC0B322DEB
:100A6C0000008312031307120330FC007A30FB00E2
:100A7C00FB0B3E2DFC0B3E2D0000013083120313AB
:100A8C00BC070318BD0A0030BD071D2D83120313CC
:100A9C00861B512D522D622D061F552D562D622D64
:100AAC000330FD000830FC007730FB00FB0B5C2DA5
:100ABC00FC0B5C2DFD0B5C2D83120313861B672D29
:100ACC00682D972D061F6B2D6C2D972DBE01BF0128
:100ADC003F08803AFF0080307F02031D772D3230B3
:100AEC003E02031C7A2D7B2D7C2D972D8312031334
:100AFC000716F330FB00822D832DFB0B812D831207
:100B0C0003130712F330FB008B2D8C2DFB0B8A2D5E
:100B1C00013083120313BE070318BF0A0030BF074E
:100B2C006E2D83120313861B9C2D9D2DAD2D061F40
:100B3C00A02DA12DAD2D0330FD000830FC00773029
:100B4C00FB00FB0BA72DFC0BA72DFD0BA72D831278
:100B5C000313861BB22DB32DE82D061FB62DB72D12
:100B6C00E82DC001C1014108803AFF0080307F02AE
:100B7C00031DC22D64304002031CC52DC62DC72D8C
:100B8C00E82D8312031307160330FC009F30FB0083
:100B9C00FB0BCE2DFC0BCE2DD32D83120313071282
:100BAC000330FC009F30FB00FB0BDA2DFC0BDA2D25
:100BBC00DF2D013083120313C0070318C10A003064
:100BCC00C107B92D83120313861BED2DEE2DFE2DBF
:100BDC00061FF12DF22DFE2D0330FD000830FC0018
:100BEC007730FB00FB0BF82DFC0BF82DFD0BF82DD3
:100BFC0083120313861F032E042E312E061B072E81
:100C0C00082E312EC201C3014308803AFF00803008
:100C1C007F02031D132E32304202031C162E172E98
:100C2C00182E312E831203130716FE30FB00FB0B1C
:100C3C001D2E0000831203130712FE30FB00FB0B6A
:100C4C00252E0000013083120313C2070318C30AB8
:100C5C000030C3070A2E83120313861F362E372E3D
:100C6C00472E061B3A2E3B2E472E0330FD00083034
:100C7C00FC007730FB00FB0B412EFC0B412EFD0BD7
:100C8C00412E83120313861F4C2E4D2E782E061BDD
:100C9C00502E512E782EC401C5014508803AFF0014
:100CAC0080307F02031D5C2E32304402031C5F2E09
:100CBC00602E612E782E8312031307167F30FB00F3
:100CCC00FB0B662E8312031307127F30FB00FB0B0A
:100CDC006D2E013083120313C4070318C50A0030AC
:100CEC00C507532E83120313861F7D2E7E2E8F2E47
:100CFC00061B812E822E8F2E0330FD008A30FC00C5
:100D0C005530FB00FB0B882EFC0B882EFD0B882E20
:100D1C008F2E83120313861F942E952EC42E061B22
:100D2C00982E992EC42EC601C7014708803AFF00A1
:100D3C0080307F02031DA42E32304602031CA72EE6
:100D4C00A82EA92EC42E831203130716B530FB0050
:100D5C00AF2EFB0BAE2EB22E831203130712B5303F
:100D6C00FB00B82EFB0BB72EBB2E013083120313E6
:100D7C00C6070318C70A0030C7079B2E831203133C
:100D8C00861FC92ECA2EDB2E061BCD2ECE2EDB2E99
:100D9C000330FD008A30FC005530FB00FB0BD42ED9
:100DAC00FC0BD42EFD0BD42EDB2E83120313861FCB
:100DBC00E02EE12E0C2F061BE42EE52E0C2FC80185
:100DCC00C9014908803AFF0080307F02031DF02ED4
:100DDC0032304802031CF32EF42EF52E0C2F831206
:100DEC00031307169730FB00FB0BFA2E8312031329
:100DFC0007129730FB00FB0B012F013083120313FA
:100E0C00C8070318C90A0030C907E72E8312031359
:100E1C00861F112F122F232F061B152F162F232F52
:100E2C000330FD008A30FC005530FB00FB0B1C2FFF
:100E3C00FC0B1C2FFD0B1C2F232F83120313861F5F
:100E4C00282F292F5A2F061B2C2F2D2F5A2FCA0132
:100E5C00CB014B08803AFF0080307F02031D382FF6
:100E6C0032304A02031C3B2F3C2F3D2F5A2F83124A
:100E7C0003130716A130FB00432FFB0B422F462F09
:100E8C00472F831203130712A130FB004D2FFB0BCE
:100E9C004C2F502F512F013083120313CA07031804
:100EAC00CB0A0030CB072F2F83120313861F5F2F23
:100EBC00602F712F061B632F642F712F0330FD00E1
:100ECC008A30FC005530FB00FB0B6A2FFC0B6A2FA1
:100EDC00FD0B6A2F712F83120313861F762F772F2A
:100EEC00A42F061B7A2F7B2FA42FCC01CD014D08EC
:100EFC00803AFF0080307F02031D862F32304C0277
:100F0C00031C892F8A2F8B2FA42F831203130716F0
:100F1C008630FB00FB0B902F00008312031307128B
:100F2C008630FB00FB0B982F00000130831203135B
:100F3C00CC070318CD0A0030CD077D2F8312031385
:100F4C00861FA92FAA2FBB2F061BAD2FAE2FBB2F91
:100F5C000630FD001330FC00AD30FB00FB0BB42F52
:100F6C00FC0BB42FFD0BB42FBB2F0A128A110028D7
:100F7C0083136630FD000030FE000630FF004E305B
:100F8C0084000A128A15F1270A128A110A128A158C
:100F9C00E5270A128A11F0000A128A15E6270A12AE
:100FAC008A11F1000A128A15E7270A128A11F20037
:100FBC000A128A15E8270A128A11F3000A128A15F6
:100FCC00E9270A128A11F4000A128A15EA270A1272
:100FDC008A11F5000A128A15EB270A128A11F600FB
:100FEC000A128A15EC270A128A11F70083010A12D9
:040FFC008A119D2891
:101FCA0054340134003400347E3401340034003493
:101FDA007E088A007F0882000A128A15ED270A12F3
:101FEA008A158000840A04087D0603190034FF0A52
:061FFA000319FE0AF12F9D
:04400E00D420FF3F7C
:00000001FF
