:020000040000FA
:060000000A128A110C280F
:10000800FE00030EF1000A08F2000A128A117C2B86
:100018000A128A110F28F801F901FA018313203016
:10002800840033300A128A11CE260A128A118301FB
:100038000A128A111F280A128A1146240A128A11E2
:1000480083120313B0011030831203132802031C18
:100058002E282F283328A801831603130C16831281
:100068000711033083120313BE009730BD00BD0B88
:100078003B28BE0B3B2800300A128A11DD260A12E3
:100088008A110A128A11C5260A128A1183120313C9
:10009800BD003D08B200033083120313BE00973041
:1000A800BD00BD0B5528BE0B552883120313071539
:1000B8003330B5000030B6003208BD00BE013D083F
:1000C800B7003E08B8000A128A11F5240A128A11EC
:1000D800831203133508BF003F08FA003330B50018
:1000E8000030B6003208BD00BE013D08F3003E08EE
:1000F800F4000A30F5000030F6000A128A11BB2518
:100108000A128A11740883120313B8007308B7001F
:100118000A128A11F5240A128A1183120313350868
:10012800BF003608C000F630C1004108F3007A0865
:100138000A128A11B0260A128A11831203133F0782
:10014800C2004208F9003330B5000030B60032086A
:10015800BD00BE013D08F3003E08F4006430F50020
:100168000030F6000A128A11BB250A128A11740897
:1001780083120313B8007308B7000A128A11F52412
:100188000A128A11831203133508BF003608C0000B
:100198009C30C1004108F3007A080A128A11B0267F
:1001A8000A128A1183120313C200F630C3004308EF
:1001B800F30079080A128A11B0260A128A118312EA
:1001C800031342073F07C4004408AF007A08303ED3
:1001D800BD003D08FA007908303EBD003D08F90031
:1001E8002F08303EBD003D08AF003A307902031CAD
:1001F800FE28FF2803293930BD003D08F9003A30B0
:100208002F02031C082909290D293930BD003D0892
:10021800AF00F701F70A02300A128A110F260A12F4
:100228008A117A080A128A119A260A128A11033048
:1002380083120313BD003D08F70002300A128A1129
:100248000F260A128A1179080A128A119A260A12A6
:100258008A11043083120313BD003D08F7000230F1
:100268000A128A110F260A128A11831203132F0801
:100278000A128A119A260A128A1183120313871006
:10028800033083120313BE009730BD00BD0B4A290B
:10029800BE0B4A2900300A128A11DD260A128A1179
:1002A8000A128A11C5260A128A1183120313BD0085
:1002B8003D08B100033083120313BE009730BD0020
:1002C800BD0B6429BE0B64298312031387146430A1
:1002D800B5000030B6003108BD00BE013D08B700CA
:1002E8003E08B8000A128A11F5240A128A118312EC
:1002F80003133508303EBF003F08AE000A30B50092
:100308000030B6003108BD00BE013D08B7003E0808
:10031800B8000A128A11F5240A128A1183120313EB
:100328003508BF003608C000F630C1004108F300A8
:100338002E080A128A11B0260A128A118312031390
:100348003F07103EC2004208AD009C30BD003D088A
:10035800F3002E080A128A11B0260A128A11831293
:100368000313BE00F630BF003F08F3002D080A1241
:100378008A11B0260A128A11831203133E07310725
:10038800D03EC0004008AC000730BD003D08F70073
:1003980002300A128A110F260A128A1183120313D5
:1003A8002E080A128A119A260A128A110830831214
:1003B8000313BD003D08F70002300A128A110F2608
:1003C8000A128A11831203132D080A128A119A2617
:1003D8000A128A11093083120313BD003D08F70081
:1003E80002300A128A110F260A128A118312031385
:1003F8002C080A128A119A260A128A1183120313E8
:100408000710033083120313BE009730BD00BD0BE5
:100418000B2ABE0B0B2A831203132408031D152A6B
:10042800162A2A2A00300A128A11DD260A128A118F
:100438000A128A11C5260A128A1183120313BD00F3
:100448003D08A600A401A40A05143E2A01300A1298
:100458008A11DD260A128A110A128A11C5260A1281
:100468008A1183120313BD003D08A700A4010510DB
:1004780026088600033083120313BE009730BD00A0
:10048800BD0B442ABE0B442A831203130714260803
:10049800031D4F2A502A972A1E302702031C552A6B
:1004A800562A7C2A3330B5000030B6002708BD0034
:1004B800BE013D08F3003E08F4003230F50000307C
:1004C800F6000A128A11BB250A128A1174088312CF
:1004D8000313B8007308B7000A128A11F5240A1228
:1004E8008A11831203133508BF003F08B000802A21
:1004F8002708BD003D08B0002B30BD003D08A20014
:100508000D30BD003D08F70002300A128A110F268F
:100518000A128A118312031322080A128A119A26D0
:100528000A128A11DD2A1E302602031C9C2A9D2AE3
:10053800C32A3330B5000030B6002608BD00BE011E
:100548003D08F3003E08F4003230F5000030F600B4
:100558000A128A11BB250A128A117408831203131E
:10056800B8007308B7000A128A11F5240A128A1112
:10057800831203133508BF003F08B000C72A2608B6
:10058800BD003D08B0002D30BD003D08A2000D3073
:10059800BD003D08F70002300A128A110F260A1220
:1005A8008A118312031322080A128A119A260A1240
:1005B8008A1183120313300886006430B5000030B6
:1005C800B6003008BD00BE013D08B7003E08B800BF
:1005D8000A128A11F5240A128A11831203133508A4
:1005E800303EBF003F08AB000A30B5000030B6000F
:1005F8003008BD00BE013D08B7003E08B8000A1229
:100608008A11F5240A128A11831203133508BF00D0
:100618003608C000F630C1004108F3002B080A1262
:100628008A11B0260A128A11831203133F07103E5B
:10063800C2004208AA009C30BD003D08F3002B0808
:100648000A128A11B0260A128A1183120313BE00F5
:10065800F630BF003F08F3002A080A128A11B026B4
:100668000A128A11831203133E073007D03EC000D6
:100678004008A9000E30BD003D08F70002300A12FC
:100688008A110F260A128A11831203132B080A12E1
:100698008A119A260A128A110F3083120313BD0099
:1006A8003D08F70002300A128A110F260A128A1131
:1006B800831203132A080A128A119A260A128A1127
:1006C800103083120313BD003D08F70002300A12F0
:1006D8008A110F260A128A118312031329080A1293
:1006E8008A119A260A128A1127280A128A110C28B6
:1006F8000B1D7F2B802B872B0130F0007008831295
:100708000313A8070B11831203130C1E8C2B8D2BBC
:100718003F2C7808031D912B922B972B7A08990070
:10072800F801F80A3C2C7803031D9B2B9C2BA32B68
:100738002E3099000230F0007008F8003C2C02308E
:100748007806031DA82BA92BB02B79089900033034
:10075800F0007008F8003C2C03307806031DB52B18
:10076800B62BBD2B2F0899000430F0007008F80054
:100778003C2C04307806031DC22BC32BCA2B203017
:1007880099000530F0007008F8003C2C0530780618
:10079800031DCF2BD02BD72B2E0899000630F00045
:1007A8007008F8003C2C06307806031DDC2BDD2B86
:1007B800E42B2D0899000730F0007008F8003C2C55
:1007C80007307806031DE92BEA2BF12B2C0899003A
:1007D8000830F0007008F8003C2C08307806031D3B
:1007E800F62BF72BFE2B203099000930F00070080B
:1007F800F8003C2C09307806031D032C042C0B2C24
:10080800220899000A30F0007008F8003C2C0A30E1
:100818007806031D102C112C182C2B0899000B306E
:10082800F0007008F8003C2C0B307806031D1D2CD6
:100838001E2C252C2A0899000C30F0007008F800AE
:100848003C2C0C307806031D2A2C2B2C322C290822
:1008580099000D30F0007008F8003C2C0D30780637
:10086800031D372C382C3C2C0D309900F8013C2CFA
:10087800831603130C1272088A00710E8300FE0E91
:100888007E0E090083160317880189018316031356
:10089800850183120313850183160313071187103B
:1008A80007108601880189018312031386018801D4
:1008B8008901071587140714B001F301F401F50144
:1008C80020300A128A1184260A128A110A128A1101
:1008D80035260A128A1183160313811281110730F3
:1008E80081040A308312031381008B178B160B11B6
:1008F8000A128A115E250A128A1103308312031321
:10090800B6003608F70001300A128A110F260A12BB
:100918008A110A300A128A11E6250A128A11F70189
:10092800F70A02300A128A110F260A128A110130B8
:100938000A128A11E6250A128A1108308312031353
:10094800B6003608F70001300A128A110F260A127B
:100958008A110D300A128A11E6250A128A11073007
:1009680083120313B6003608F70002300A128A1100
:100978000F260A128A1106300A128A11E6250A126F
:100988008A110E3083120313B6003608F7000130BF
:100998000A128A110F260A128A1110300A128A11B5
:1009A800E6250A128A110E3083120313B6003608A0
:1009B800F70002300A128A110F260A128A1106302D
:1009C8000A128A11E6250A128A11FA01F90183121C
:1009D8000313AF01AE01AD01AC01AB01AA01A9013E
:1009E800080083120313BA01B61FFB2CFC2C032D3D
:1009F800B509B609B50A0319B60ABA01BA0AB81F81
:100A0800062D072D102DB709B809B70A0319B80A1A
:100A18000130F7007708BA06BB01BC013508360477
:100A28000319172D182D4F2DB901B90A262D01309C
:100A38000310B50DB60DFF3E031D1C2D0130F70048
:100A48007708B907B61F292D2A2D1B2D0130031051
:100A5800BB0DBC0DFF3E031D2B2D36083802031DB0
:100A6800372D35083702031C3A2D3B2D422D35080A
:100A7800B7023608031CB803B8023B140130031050
:100A8800B60CB50CFF3E031D432D0130B902031D02
:100A98004E2D4F2D2A2D3A080319532D542D592D1B
:100AA800BB09BC09BB0A0319BC0A3C08B6003B08D1
:100AB800B5000800273083120313B400F430B300E4
:100AC800B30B642DB40B642D000000300A128A1198
:100AD800E3260A128A11343083120313B400F1306A
:100AE800B300B30B752DB40B752D30300A128A1173
:100AF80052260A128A110D3083120313B400FB30F8
:100B0800B300B30B852DB40B852D30300A128A1132
:100B180052260A128A11693083120313B300B30BE9
:100B2800932D962D30300A128A1152260A128A11F4
:100B380038300A128A1152260A128A1110300A1203
:100B48008A1152260A128A1101300A128A11522673
:100B58000A128A1106300A128A1152260A128A11BA
:100B68000C300A128A1152260A128A1108008312BE
:100B78000313B301B401731CC22DC32DCB2D75080B
:100B880083120313B3070318B40A7608B4070130B5
:100B98000310F50DF60DFF3E031DCC2D013003109B
:100BA800F40CF30CFF3E031DD32D73087404031DCE
:100BB800DE2DDF2DBF2D831203133408F400330814
:100BC800F300080083120313B500B301B401012E2A
:100BD8003308350784000A128A116C260A128A1112
:100BE8000A128A119A260A128A11013083120313F3
:100BF800B3070318B40A0030B40733083507840074
:100C08000A128A116C260A128A11003A031D0D2E47
:100C18000E2EEC2D080083120313B4003403031DB9
:100C2800162E172E232E77087F3EB3003308B50003
:100C380035080A128A1152260A128A11342E0230F5
:100C48003406031D282E292E342E7708BF3EB30004
:100C58003308B50035080A128A1152260A128A1179
:100C680008008316031307138717193099001815FE
:100C7800831603178711831603139A011812831218
:100C88000313981783160313181398168C168312D8
:100C98000313181318168B170B170800F600831286
:100CA8000313091076080A128A11E3260A128A1118
:100CB8008312031389141A30F500F830F400F40B8A
:100CC800632EF50B632E00008312031389100800AE
:100CD80006308A000408840A8207003430342E342F
:100CE8003034303400343034303430340034533419
:100CF8003134003453343234003453343334003410
:100D0800F600831603138712761D8B2E8C2E902ED9
:100D1800750894008715942E73087504940087113C
:100D2800760874048312031394000800F5008312F4
:100D38000313091475080A128A11E3260A128A1184
:100D48008312031389141A30F400F40BA92E00003F
:100D58008312031389100800F600F501761CB52EDE
:100D6800B62EBA2E7308F4007408F5070310F30DB5
:100D78000310F60C7608031DC22EC32EB22E75087A
:100D880008000A128A11D6260A128A11831203133E
:100D98001308080064008001840A0406031900345B
:100DA8000406CF2E83160313141CDB2EDC2ED62E3E
:100DB8000800F30073088312031393000800F3007C
:0A0DC800730883120313880008006B
:04400E00D620FF3F7A
:00000001FF
