:020000040000FA
:060000000A128A110C280F
:10000800FE00030EF1000A08F2000A128A11B62B4C
:100018000A128A110F28F801F901FA018313203016
:10002800840033300A128A1109270A128A118301BF
:100038000A128A111F280A128A1180240A128A11A8
:10004800FA011030831203132702031C2C282D28D1
:100058003128A701831603130C16831207110330E6
:1000680083120313BE009730BD00BD0B3928BE0BA9
:10007800392800300A128A1118270A128A110A121E
:100088008A1100270A128A1183120313BD003D0842
:10009800B200033083120313BE009730BD00BD0BBE
:1000A8005328BE0B53288312031307153330B500AA
:1000B8000030B6003208BD00BE013D08B7003E085A
:1000C800B8000A128A112F250A128A118312031303
:1000D8003508BF003F08B0003330B5000030B60027
:1000E8003208BD00BE013D08F3003E08F4000A30A6
:1000F800F5000030F6000A128A11F6250A128A1154
:10010800740883120313B8007308B7000A128A111F
:100118002F250A128A11831203133508BF003608E7
:10012800C000F630C1004108F30030080A128A11F5
:10013800EB260A128A11831203133F07C2004208F2
:10014800AF003330B5000030B6003208BD00BE0144
:100158003D08F3003E08F4006430F5000030F60076
:100168000A128A11F6250A128A11740883120313D7
:10017800B8007308B7000A128A112F250A128A11CB
:10018800831203133508BF003608C0009C30C10035
:100198004108F30030080A128A11EB260A128A1164
:1001A80083120313C200F630C3004308F3002F087C
:1001B8000A128A11EB260A128A11831203134207C4
:1001C8003F07C4004408AE003008303EBD003D087B
:1001D800B0002F08303EBD003D08AF002E08303E6D
:1001E800BD003D08AE003A302F02031CFC28FD2854
:1001F80001293930BD003D08AF003A302E02031CFA
:10020800062907290B293930BD003D08AE00F70142
:10021800F70A02300A128A114A260A128A11831230
:10022800031330080A128A11D6260A128A110330DB
:1002380083120313BD003D08F70002300A128A1129
:100248004A260A128A11831203132F080A128A11E6
:10025800D6260A128A11043083120313BD003D0802
:10026800F70002300A128A114A260A128A118312EA
:1002780003132E080A128A11D6260A128A1183122B
:1002880003138710033083120313BE009730BD0099
:10029800BD0B4C29BE0B4C2900300A128A111827B5
:1002A8000A128A110A128A1100270A128A11831265
:1002B8000313BD003D08B100033083120313BE00D1
:1002C8009730BD00BD0B6629BE0B66298312031348
:1002D80087146430B5000030B6003108BD00BE0197
:1002E8003D08B7003E08B8000A128A112F250A12E5
:1002F8008A11831203133508303EBF003F08AD0052
:100308000A30B5000030B6003108BD00BE013D0816
:10031800B7003E08B8000A128A112F250A128A115E
:10032800831203133508BF003608C000F630C10039
:100338004108F3002D080A128A11EB260A128A11C5
:10034800831203133F07103EC2004208AC009C30E2
:10035800BD003D08F3002D080A128A11EB260A1287
:100368008A1183120313BE00F630BF003F08F30062
:100378002C080A128A11EB260A128A118312031317
:100388003E073107D03EC0004008AB000730BD0033
:100398003D08F70002300A128A114A260A128A1109
:1003A800831203132D080A128A11D6260A128A11FB
:1003B800083083120313BD003D08F70002300A120B
:1003C8008A114A260A128A11831203132C080A1268
:1003D8008A11D6260A128A11093083120313BD0026
:1003E8003D08F70002300A128A114A260A128A11B9
:1003F800831203132B080A128A11D6260A128A11AD
:10040800831203130710033083120313BE009730BF
:10041800BD00BD0B0D2ABE0B0D2A83120313240841
:10042800031D172A182A2B2A00300A128A111827A6
:100438000A128A110A128A1100270A128A118312D3
:100448000313BD003D08A600A401A40A3C2A0130FC
:100458000A128A1118270A128A110A128A11002709
:100468000A128A1183120313BD003D08F800A40183
:10047800033083120313BE009730BD00BD0B422A20
:10048800BE0B422A8312031307142608031D4D2AA4
:100498004E2AC82A1E307802031C532A542AAD2A31
:1004A8003330B5000030B6007808BD00BE013D0805
:1004B800F3003E08F4003230F5000030F6000A126E
:1004C8008A11F6250A128A11740883120313B800D8
:1004D8007308B7000A128A112F250A128A1183128B
:1004E80003133508BF003F08FA0034307802031CB4
:1004F8007E2A7F2A8A2A473078020318842A852A86
:100508008A2A7A08013EBD003D08FA006730780261
:10051800031C8F2A902A9B2A6D3078020318952A8B
:10052800962A9B2A7A08013EBD003D08FA009830B9
:100538007802031CA02AA12AB12A9B30780203184A
:10054800A62AA72AB12A7A08FF3EBD003D08FA006C
:10055800B12A7808BD003D08FA002B30BD003D08DF
:10056800A2000D30BD003D08F70002300A128A11C2
:100578004A260A128A118312031322080A128A11C0
:10058800D6260A128A11192B27302602031CCD2AD7
:10059800CE2AFF2A3330B5000030B6002608BD0049
:1005A800BE013D08F3003E08F4003230F50000308B
:1005B800F6000A128A11F6250A128A1174088312A3
:1005C8000313B8007308B7000A128A112F250A12FC
:1005D8008A11831203133508BF003F08FA0034302C
:1005E8002602031CF82AF92A032B7A08013EBD00CB
:1005F8003D08FA00032B2608BD003D08FA002D30FF
:10060800BD003D08A2000D30BD003D08F7000230D6
:100618000A128A114A260A128A118312031322081F
:100628000A128A11D6260A128A1164308312031319
:10063800B5000030B6007A08BD00BE013D08B7001D
:100648003E08B8000A128A112F250A128A1183124D
:1006580003133508303EBF003F08AA000A30B50032
:100668000030B6007A08BD00BE013D08B7003E085C
:10067800B8000A128A112F250A128A11831203134D
:100688003508BF003608C000F630C1004108F30045
:100698002A080A128A11EB260A128A1183120313F6
:1006A8003F07103EC2004208A9009C30BD003D082B
:1006B800F3002A080A128A11EB260A128A118312F9
:1006C8000313BE00F630BF003F08F30029080A12E2
:1006D8008A11EB260A128A11831203133E077A073E
:1006E800D03EC0004008A8000E30BD003D08F7000D
:1006F80002300A128A114A260A128A118312031337
:100708002A080A128A11D6260A128A110F30831271
:100718000313BD003D08F70002300A128A114A2669
:100728000A128A118312031329080A128A11D6267B
:100738000A128A11103083120313BD003D08F70016
:1007480002300A128A114A260A128A1183120313E6
:1007580028080A128A11D6260A128A1125280A128E
:100768008A110C280B1DB92BBA2BC12B0130F000B4
:10077800700883120313A7070B11831203130C1EAF
:10078800C62BC72B792C7908031DCB2BCC2BD12B4F
:1007980030089900F901F90A762C7903031DD52B45
:1007A800D62BDD2B2E3099000230F0007008F900AE
:1007B800762C02307906031DE22BE32BEA2B2F0857
:1007C80099000330F0007008F900762C03307906A0
:1007D800031DEF2BF02BF72B2E0899000430F000A7
:1007E8007008F900762C04307906031DFC2BFD2BCC
:1007F800042C203099000530F0007008F900762CA0
:1008080005307906031D092C0A2C112C2D08990096
:100818000630F0007008F900762C06307906031DC2
:10082800162C172C1E2C2C0899000730F000700885
:10083800F900762C07307906031D232C242C2B2C49
:100848002B0899000830F0007008F900762C083061
:100858007906031D302C312C382C203099000930B2
:10086800F0007008F900762C09307906031D3D2C3C
:100878003E2C452C220899000A30F0007008F90037
:10088800762C0A307906031D4A2C4B2C522C2A0848
:1008980099000B30F0007008F900762C0B307906BF
:1008A800031D572C582C5F2C290899000C30F00098
:1008B8007008F900762C0C307906031D642C652C21
:1008C8006C2C280899000D30F0007008F900762C7F
:1008D8000D307906031D712C722C762C0D30990081
:1008E800F901762C831603130C1272088A00710E14
:1008F8008300FE0E7E0E0900831603178801890106
:1009080083160313850183120313850183160313CA
:1009180007118710071086018801890183120313C4
:10092800860188018901071587140714FA01F30164
:10093800F401F50120300A128A11C0260A128A1120
:100948000A128A1170260A128A1183160313811259
:100958008111073081040A308312031381008B1739
:100968008B160B110A128A1198250A128A11033064
:1009780083120313B6003608F70001300A128A11F1
:100988004A260A128A110B300A128A1121260A12E3
:100998008A11F701F70A02300A128A114A260A1246
:1009A8008A1101300A128A1121260A128A11083086
:1009B80083120313B6003608F70001300A128A11B1
:1009C8004A260A128A110E300A128A1121260A12A0
:1009D8008A11073083120313B6003608F700023075
:1009E8000A128A114A260A128A1107300A128A1133
:1009F80021260A128A110E3083120313B600360814
:100A0800F70001300A128A114A260A128A11113097
:100A18000A128A1121260A128A110E308312031330
:100A2800B6003608F70002300A128A114A260A125E
:100A38008A1107300A128A1121260A128A11831292
:100A48000313B001AF01AE01AD01AC01AB01AA01C6
:100A5800A901A801080083120313BA01B61F352D96
:100A6800362D3D2DB509B609B50A0319B60ABA01DE
:100A7800BA0AB81F402D412D4A2DB709B809B70A3F
:100A88000319B80A0130F7007708BA06BB01BC01A0
:100A9800350836040319512D522D892DB901B90A8B
:100AA800602D01300310B50DB60DFF3E031D562D08
:100AB8000130F7007708B907B61F632D642D552D4F
:100AC80001300310BB0DBC0DFF3E031D652D36081C
:100AD8003802031D712D35083702031C742D752D3E
:100AE8007C2D3508B7023608031CB803B8023B143E
:100AF80001300310B60CB50CFF3E031D7D2D0130EF
:100B0800B902031D882D892D642D3A0803198D2DEE
:100B18008E2D932DBB09BC09BB0A0319BC0A3C08DE
:100B2800B6003B08B5000800143083120313B40064
:100B38007930B300B30B9E2DB40B9E2D00300A12F2
:100B48008A111E270A128A111A3083120313B4005D
:100B5800F730B300B30BAE2DB40BAE2DB32D303040
:100B68000A128A118D260A128A110730831203137A
:100B7800B4007C30B300B30BBF2DB40BBF2D000005
:100B880030300A128A118D260A128A1134308312E3
:100B98000313B300B30BCE2D000030300A128A11B4
:100BA8008D260A128A1138300A128A118D260A12E5
:100BB8008A1110300A128A118D260A128A11013000
:100BC8000A128A118D260A128A1106300A128A110F
:100BD8008D260A128A110C300A128A118D260A12E1
:100BE8008A11080083120313B301B401731CFD2D8D
:100BF800FE2D062E750883120313B3070318B40AD3
:100C08007608B40701300310F50DF60DFF3E031DFD
:100C1800072E01300310F40CF30CFF3E031D0E2EBB
:100C280073087404031D192E1A2EFA2D8312031348
:100C38003408F4003308F300080083120313B500E6
:100C4800B301B4013C2E3308350784000A128A1117
:100C5800A7260A128A110A128A11D6260A128A119E
:100C6800013083120313B3070318B40A0030B40722
:100C78003308350784000A128A11A7260A128A1136
:100C8800003A031D482E492E272E0800831203130D
:100C9800B4003403031D512E522E5E2E77087F3E7A
:100CA800B3003308B50035080A128A118D260A12D6
:100CB8008A116F2E02303406031D632E642E6F2EA8
:100CC8007708BF3EB3003308B50035080A128A1109
:100CD8008D260A128A110800831603130713871733
:100CE80019309900181583160317871183160313F3
:100CF8009A011812831203139817831603131813F3
:100D080098168C1683120313181318168B170B17C3
:100D18000800F60083120313091076080A128A11D4
:100D28001E270A128A118312031389140D30F50045
:100D3800FB30F400F40B9E2EF50B9E2EA32E83128F
:100D480003138910080006308A000408840A820701
:100D5800003430342E3430343034563400343034A7
:100D68003034303400345334313400345334323472
:100D78000034533433340034F600831603138712D7
:100D8800761DC72EC82ECC2E750894008715D02E38
:100D9800730875049400871176087404831203138A
:100DA80094000800F50083120313091475080A1249
:100DB8008A111E270A128A118312031389140D300F
:100DC800F400F40BE52E8312031389100800F600D3
:100DD800F501761CF02EF12EF52E7308F400740838
:100DE800F5070310F30D0310F60C7608031DFD2E0E
:100DF800FE2EED2E750808000A128A1111270A1214
:100E08008A11831203131308080064008001840AFE
:100E180004060319003404060A2F83160313141C4E
:100E2800162F172F112F0800F300730883120313CE
:100E380093000800F3007308831203138800080066
:04400E00D620FF3F7A
:00000001FF
