:020000040000FA
:100000000A128A11F92F00308A000408840A820734
:10001000003430342E3430343034003453343134FE
:0E00200000345334323400345334333400345B
:100BC000F00070088312031388000800F00070081A
:100BD000831203139300080083160313141CF12DD2
:100BE000F22DEC2D08000A128A11EC250A128A1146
:100BF0008312031313080800F2008312031309146D
:100C000072080A128A11E0250A128A11831203134C
:100C100089140D30F100F10B0B2E83120313891090
:100C20000800F300831603138712731D182E192E64
:100C30001D2E720894008715212E700872049400EE
:100C40008711730871048312031394000800F300E2
:100C500083120313091073080A128A11E0250A127D
:100C60008A118312031389140D30F200FB30F10056
:100C7000F10B382EF20B382E3D2E83120313891000
:100C800008008316031307138717193099001815E6
:100C9000831603178711831603139A011812831200
:100CA0000313981783160313181398168C168312C0
:100CB0000313181318168B170B170800F60076038A
:100CC000031D632E642E702E74087F3EF500750898
:100CD000F70077080A128A1127260A128A11812E34
:100CE00002307606031D752E762E812E7408BF3EC7
:100CF000F5007508F70077080A128A1127260A12EC
:100D00008A110800F500F301F401992E73087507A4
:100D100084000A128A1103200A128A110A128A1107
:100D2000FC250A128A110130F3070318F40A003077
:100D3000F4077308750784000A128A1103200A1247
:100D40008A11003A031DA52EA62E862E0800143007
:100D5000F5007930F400F40BAB2EF50BAB2EB02E72
:100D600000300A128A11E0250A128A111A30F500A1
:100D7000F830F400F40BBA2EF50BBA2E0000303028
:100D80000A128A1127260A128A110730F5007D30CF
:100D9000F400F40BC92EF50BC92E30300A128A115B
:100DA00027260A128A113530F400F40BD52E303084
:100DB0000A128A1127260A128A1138300A128A1159
:100DC00027260A128A1110300A128A1127260A12BF
:100DD0008A1101300A128A1127260A128A11063056
:100DE0000A128A1127260A128A110C300A128A1155
:100DF00027260A128A1108000A128A1173270A127A
:100E00008A118312031307110330FA009730F90097
:100E1000F90B082FFA0B082F0D2F00300A128A1138
:100E2000E6250A128A110A128A11F3250A128A117A
:100E3000F9007908FD000330FA009730F900F90B4A
:100E40001F2FFA0B1F2F242F831203130715871050
:100E50000330FA009730F900F90B2C2FFA0B2C2FE6
:100E6000312F00300A128A11E6250A128A110A125D
:100E70008A11F3250A128A11F9007908FC0003305F
:100E8000FA009730F900F90B432FFA0B432F482F44
:100E900083120313871407100330FA009730F90008
:100EA000F90B502FFA0B502F552F00300A128A11D0
:100EB000E6250A128A110A128A11F3250A128A11EA
:100EC000F9007908FB000330FA009730F900F90BBC
:100ED000672FFA0B672F6C2F831203130714012F50
:100EE0000A128A11002883160317880189018316C4
:100EF00003130711871007108601880189018312E7
:100F00000313860188018901071587140714F0016E
:100F1000F101F20120300A128A1111260A128A11F7
:100F20000A128A1141260A128A110A128A11A72668
:100F30000A128A110330F8007808F40001300A120E
:100F40008A115E260A128A1106300A128A11822636
:100F50000A128A11F401F40A02300A128A115E267A
:100F60000A128A1101300A128A1182260A128A1183
:100F70000830F8007808F40001300A128A115E2661
:100F80000A128A1109300A128A1182260A128A115B
:100F90000730F8007808F40002300A128A115E2641
:100FA0000A128A1101300A128A1182260A128A1143
:100FB0000E30F8007808F40001300A128A115E261B
:100FC0000A128A110C300A128A1182260A128A1118
:100FD0000D30F8007808F40002300A128A115E26FB
:100FE0000A128A1101300A128A1182260A128A1103
:100FF0000800FB01FC01FD0183010A128A11FC2E8D
:04400E00D620FF3F7A
:00000001FF
