:020000040000FA
:060000000A128A110C280F
:10000800FE00030EF1000A08F2000A128A117F2886
:100018000A128A110F28F901FA0183010A128A11BA
:1000280015280A128A1146200A128A11831203130C
:10003800861C1F2820282228FA01FA0A8618252853
:10004800262830287A03031D2A282B283028FA016D
:100058000130F80078088807061D33283428362828
:10006800F901F90A061939283A281A287903031DCB
:100078003E283F281A28F901013088021A280A1256
:100088008A110C2883160317880189018316031324
:100098008601870188018312031388018B170B17C8
:1000A8008C11831603138C158516F3012030F70085
:1000B8007708F400F50124300A128A1166200A1222
:1000C8008A110800F6008316031387127608740451
:1000D800831203139400761D7228732878287508F4
:1000E8008316031394007D2873087504831603137D
:1000F800940087150800831203138C1D8428852813
:100108008E2808080A128A1195200A128A11831269
:1001180003138C1172088A00710E8300FE0E7E0E86
:0E0128000900F0007008831203139300080012
:04400E00D420FF3F7C
:00000001FF
